{
  "address": "0xCc7dd76f7e6C37631800379A48c0eCd56d8C840f",
  "abi": [
    {
      "inputs": [],
      "stateMutability": "nonpayable",
      "type": "constructor"
    },
    {
      "anonymous": false,
      "inputs": [
        {
          "indexed": true,
          "internalType": "address",
          "name": "owner",
          "type": "address"
        },
        {
          "indexed": true,
          "internalType": "address",
          "name": "approved",
          "type": "address"
        },
        {
          "indexed": true,
          "internalType": "uint256",
          "name": "tokenId",
          "type": "uint256"
        }
      ],
      "name": "Approval",
      "type": "event"
    },
    {
      "anonymous": false,
      "inputs": [
        {
          "indexed": true,
          "internalType": "address",
          "name": "owner",
          "type": "address"
        },
        {
          "indexed": true,
          "internalType": "address",
          "name": "operator",
          "type": "address"
        },
        {
          "indexed": false,
          "internalType": "bool",
          "name": "approved",
          "type": "bool"
        }
      ],
      "name": "ApprovalForAll",
      "type": "event"
    },
    {
      "anonymous": false,
      "inputs": [
        {
          "indexed": true,
          "internalType": "address",
          "name": "previousOwner",
          "type": "address"
        },
        {
          "indexed": true,
          "internalType": "address",
          "name": "newOwner",
          "type": "address"
        }
      ],
      "name": "OwnershipTransferred",
      "type": "event"
    },
    {
      "anonymous": false,
      "inputs": [
        {
          "indexed": true,
          "internalType": "address",
          "name": "from",
          "type": "address"
        },
        {
          "indexed": true,
          "internalType": "address",
          "name": "to",
          "type": "address"
        },
        {
          "indexed": true,
          "internalType": "uint256",
          "name": "tokenId",
          "type": "uint256"
        }
      ],
      "name": "Transfer",
      "type": "event"
    },
    {
      "inputs": [
        {
          "internalType": "address",
          "name": "to",
          "type": "address"
        },
        {
          "internalType": "uint256",
          "name": "tokenId",
          "type": "uint256"
        }
      ],
      "name": "approve",
      "outputs": [],
      "stateMutability": "nonpayable",
      "type": "function"
    },
    {
      "inputs": [
        {
          "internalType": "address",
          "name": "owner",
          "type": "address"
        }
      ],
      "name": "balanceOf",
      "outputs": [
        {
          "internalType": "uint256",
          "name": "",
          "type": "uint256"
        }
      ],
      "stateMutability": "view",
      "type": "function"
    },
    {
      "inputs": [
        {
          "internalType": "uint256",
          "name": "tokenId",
          "type": "uint256"
        }
      ],
      "name": "burn",
      "outputs": [],
      "stateMutability": "nonpayable",
      "type": "function"
    },
    {
      "inputs": [
        {
          "internalType": "uint256",
          "name": "tokenId",
          "type": "uint256"
        }
      ],
      "name": "getApproved",
      "outputs": [
        {
          "internalType": "address",
          "name": "",
          "type": "address"
        }
      ],
      "stateMutability": "view",
      "type": "function"
    },
    {
      "inputs": [
        {
          "internalType": "uint256",
          "name": "",
          "type": "uint256"
        }
      ],
      "name": "gold",
      "outputs": [
        {
          "internalType": "bool",
          "name": "",
          "type": "bool"
        }
      ],
      "stateMutability": "view",
      "type": "function"
    },
    {
      "inputs": [
        {
          "internalType": "address",
          "name": "owner",
          "type": "address"
        },
        {
          "internalType": "address",
          "name": "operator",
          "type": "address"
        }
      ],
      "name": "isApprovedForAll",
      "outputs": [
        {
          "internalType": "bool",
          "name": "",
          "type": "bool"
        }
      ],
      "stateMutability": "view",
      "type": "function"
    },
    {
      "inputs": [],
      "name": "minter",
      "outputs": [
        {
          "internalType": "address",
          "name": "",
          "type": "address"
        }
      ],
      "stateMutability": "view",
      "type": "function"
    },
    {
      "inputs": [],
      "name": "name",
      "outputs": [
        {
          "internalType": "string",
          "name": "",
          "type": "string"
        }
      ],
      "stateMutability": "view",
      "type": "function"
    },
    {
      "inputs": [],
      "name": "owner",
      "outputs": [
        {
          "internalType": "address",
          "name": "",
          "type": "address"
        }
      ],
      "stateMutability": "view",
      "type": "function"
    },
    {
      "inputs": [
        {
          "internalType": "uint256",
          "name": "tokenId",
          "type": "uint256"
        }
      ],
      "name": "ownerOf",
      "outputs": [
        {
          "internalType": "address",
          "name": "",
          "type": "address"
        }
      ],
      "stateMutability": "view",
      "type": "function"
    },
    {
      "inputs": [],
      "name": "renounceOwnership",
      "outputs": [],
      "stateMutability": "nonpayable",
      "type": "function"
    },
    {
      "inputs": [
        {
          "internalType": "address",
          "name": "to",
          "type": "address"
        }
      ],
      "name": "safeMint",
      "outputs": [],
      "stateMutability": "nonpayable",
      "type": "function"
    },
    {
      "inputs": [
        {
          "internalType": "address",
          "name": "from",
          "type": "address"
        },
        {
          "internalType": "address",
          "name": "to",
          "type": "address"
        },
        {
          "internalType": "uint256",
          "name": "tokenId",
          "type": "uint256"
        }
      ],
      "name": "safeTransferFrom",
      "outputs": [],
      "stateMutability": "nonpayable",
      "type": "function"
    },
    {
      "inputs": [
        {
          "internalType": "address",
          "name": "from",
          "type": "address"
        },
        {
          "internalType": "address",
          "name": "to",
          "type": "address"
        },
        {
          "internalType": "uint256",
          "name": "tokenId",
          "type": "uint256"
        },
        {
          "internalType": "bytes",
          "name": "_data",
          "type": "bytes"
        }
      ],
      "name": "safeTransferFrom",
      "outputs": [],
      "stateMutability": "nonpayable",
      "type": "function"
    },
    {
      "inputs": [
        {
          "internalType": "address",
          "name": "operator",
          "type": "address"
        },
        {
          "internalType": "bool",
          "name": "approved",
          "type": "bool"
        }
      ],
      "name": "setApprovalForAll",
      "outputs": [],
      "stateMutability": "nonpayable",
      "type": "function"
    },
    {
      "inputs": [
        {
          "internalType": "address",
          "name": "minter_",
          "type": "address"
        }
      ],
      "name": "setMinter",
      "outputs": [],
      "stateMutability": "nonpayable",
      "type": "function"
    },
    {
      "inputs": [
        {
          "internalType": "string",
          "name": "tokenURI_",
          "type": "string"
        },
        {
          "internalType": "uint256",
          "name": "ntype",
          "type": "uint256"
        }
      ],
      "name": "setTokenURI",
      "outputs": [],
      "stateMutability": "nonpayable",
      "type": "function"
    },
    {
      "inputs": [
        {
          "internalType": "bytes4",
          "name": "interfaceId",
          "type": "bytes4"
        }
      ],
      "name": "supportsInterface",
      "outputs": [
        {
          "internalType": "bool",
          "name": "",
          "type": "bool"
        }
      ],
      "stateMutability": "view",
      "type": "function"
    },
    {
      "inputs": [],
      "name": "symbol",
      "outputs": [
        {
          "internalType": "string",
          "name": "",
          "type": "string"
        }
      ],
      "stateMutability": "view",
      "type": "function"
    },
    {
      "inputs": [],
      "name": "tokenIdNext",
      "outputs": [
        {
          "internalType": "uint256",
          "name": "",
          "type": "uint256"
        }
      ],
      "stateMutability": "view",
      "type": "function"
    },
    {
      "inputs": [
        {
          "internalType": "uint256",
          "name": "tokenId",
          "type": "uint256"
        }
      ],
      "name": "tokenURI",
      "outputs": [
        {
          "internalType": "string",
          "name": "uri",
          "type": "string"
        }
      ],
      "stateMutability": "view",
      "type": "function"
    },
    {
      "inputs": [
        {
          "internalType": "address",
          "name": "from",
          "type": "address"
        },
        {
          "internalType": "address",
          "name": "to",
          "type": "address"
        },
        {
          "internalType": "uint256",
          "name": "tokenId",
          "type": "uint256"
        }
      ],
      "name": "transferFrom",
      "outputs": [],
      "stateMutability": "nonpayable",
      "type": "function"
    },
    {
      "inputs": [
        {
          "internalType": "address",
          "name": "newOwner",
          "type": "address"
        }
      ],
      "name": "transferOwnership",
      "outputs": [],
      "stateMutability": "nonpayable",
      "type": "function"
    }
  ],
  "transactionHash": "0x4aa2b188ca2627af49995dc1eb8710184088bc07204ac7c0c8d28a53c7cfb80c",
  "args": [],
  "solcInputHash": "0e0d85ffbcfa008b34829302809a6dfb",
  "bytecode": "0x608060405260016007553480156200001657600080fd5b50604080518082018252600f81526e54686520556269717569537469636b60881b6020808301918252835180850190945260038452624b455960e81b908401528151919291620000699160009162000184565b5080516200007f90600190602084019062000184565b5050506200009c62000096620000ad60201b60201c565b620000b1565b620000a73362000103565b62000267565b3390565b600680546001600160a01b038381166001600160a01b0319831681179093556040519116919082907f8be0079c531659141344cd1fd0a4f28419497f9722a3daafe3b4186f6b6457e090600090a35050565b6006546001600160a01b03163314620001625760405162461bcd60e51b815260206004820181905260248201527f4f776e61626c653a2063616c6c6572206973206e6f7420746865206f776e6572604482015260640160405180910390fd5b600880546001600160a01b0319166001600160a01b0392909216919091179055565b82805462000192906200022a565b90600052602060002090601f016020900481019282620001b6576000855562000201565b82601f10620001d157805160ff191683800117855562000201565b8280016001018555821562000201579182015b8281111562000201578251825591602001919060010190620001e4565b506200020f92915062000213565b5090565b5b808211156200020f576000815560010162000214565b600181811c908216806200023f57607f821691505b602082108114156200026157634e487b7160e01b600052602260045260246000fd5b50919050565b61193080620002776000396000f3fe608060405234801561001057600080fd5b506004361061014d5760003560e01c80636352211e116100c3578063a22cb4651161007c578063a22cb465146102c2578063b88d4fde146102d5578063c87b56dd146102e8578063e985e9c5146102fb578063f2fde38b14610337578063fca3b5aa1461034a57600080fd5b80636352211e1461026457806370a0823114610277578063715018a6146102985780638bbf58b3146102a05780638da5cb5b146102a957806395d89b41146102ba57600080fd5b806309a3beef1161011557806309a3beef146101e257806320c69e56146101f557806323b872dd1461021857806340d097c31461022b57806342842e0e1461023e57806342966c681461025157600080fd5b806301ffc9a71461015257806306fdde031461017a578063075461721461018f578063081812fc146101ba578063095ea7b3146101cd575b600080fd5b61016561016036600461141c565b61035d565b60405190151581526020015b60405180910390f35b6101826103af565b604051610171919061148d565b6008546101a2906001600160a01b031681565b6040516001600160a01b039091168152602001610171565b6101a26101c83660046114a0565b610441565b6101e06101db3660046114d5565b6104db565b005b6101e06101f036600461158b565b6105f1565b6101656102033660046114a0565b600b6020526000908152604090205460ff1681565b6101e06102263660046115e4565b61068c565b6101e0610239366004611620565b6106be565b6101e061024c3660046115e4565b610763565b6101e061025f3660046114a0565b61077e565b6101a26102723660046114a0565b6107f8565b61028a610285366004611620565b61086f565b604051908152602001610171565b6101e06108f6565b61028a60075481565b6006546001600160a01b03166101a2565b61018261092c565b6101e06102d036600461163b565b61093b565b6101e06102e3366004611677565b610946565b6101826102f63660046114a0565b61097e565b6101656103093660046116f3565b6001600160a01b03918216600090815260056020908152604080832093909416825291909152205460ff1690565b6101e0610345366004611620565b610a98565b6101e0610358366004611620565b610b30565b60006001600160e01b031982166380ac58cd60e01b148061038e57506001600160e01b03198216635b5e139f60e01b145b806103a957506301ffc9a760e01b6001600160e01b03198316145b92915050565b6060600080546103be90611726565b80601f01602080910402602001604051908101604052809291908181526020018280546103ea90611726565b80156104375780601f1061040c57610100808354040283529160200191610437565b820191906000526020600020905b81548152906001019060200180831161041a57829003601f168201915b5050505050905090565b6000818152600260205260408120546001600160a01b03166104bf5760405162461bcd60e51b815260206004820152602c60248201527f4552433732313a20617070726f76656420717565727920666f72206e6f6e657860448201526b34b9ba32b73a103a37b5b2b760a11b60648201526084015b60405180910390fd5b506000908152600460205260409020546001600160a01b031690565b60006104e6826107f8565b9050806001600160a01b0316836001600160a01b031614156105545760405162461bcd60e51b815260206004820152602160248201527f4552433732313a20617070726f76616c20746f2063757272656e74206f776e656044820152603960f91b60648201526084016104b6565b336001600160a01b038216148061057057506105708133610309565b6105e25760405162461bcd60e51b815260206004820152603860248201527f4552433732313a20617070726f76652063616c6c6572206973206e6f74206f7760448201527f6e6572206e6f7220617070726f76656420666f7220616c6c000000000000000060648201526084016104b6565b6105ec8383610b7c565b505050565b6008546001600160a01b031633146106385760405162461bcd60e51b815260206004820152600a6024820152692737ba1036b4b73a32b960b11b60448201526064016104b6565b806106505781516105ec90600990602085019061136d565b600181141561066c5781516105ec90600a90602085019061136d565b60028114156106885781516105ec90600c90602085019061136d565b5050565b610697335b82610bea565b6106b35760405162461bcd60e51b81526004016104b690611761565b6105ec838383610ce1565b6008546001600160a01b031633146107055760405162461bcd60e51b815260206004820152600a6024820152692737ba1036b4b73a32b960b11b60448201526064016104b6565b6007805490600190600061071983856117c8565b9091555060409050610729610e81565b61073391906117e0565b61075957602a8114610759576000818152600b60205260409020805460ff191660011790555b6106888282610ee2565b6105ec83838360405180602001604052806000815250610946565b61078733610691565b6107ec5760405162461bcd60e51b815260206004820152603060248201527f4552433732314275726e61626c653a2063616c6c6572206973206e6f74206f7760448201526f1b995c881b9bdc88185c1c1c9bdd995960821b60648201526084016104b6565b6107f581610efc565b50565b6000818152600260205260408120546001600160a01b0316806103a95760405162461bcd60e51b815260206004820152602960248201527f4552433732313a206f776e657220717565727920666f72206e6f6e657869737460448201526832b73a103a37b5b2b760b91b60648201526084016104b6565b60006001600160a01b0382166108da5760405162461bcd60e51b815260206004820152602a60248201527f4552433732313a2062616c616e636520717565727920666f7220746865207a65604482015269726f206164647265737360b01b60648201526084016104b6565b506001600160a01b031660009081526003602052604090205490565b6006546001600160a01b031633146109205760405162461bcd60e51b81526004016104b690611802565b61092a6000610f97565b565b6060600180546103be90611726565b610688338383610fe9565b6109503383610bea565b61096c5760405162461bcd60e51b81526004016104b690611761565b610978848484846110b8565b50505050565b6000818152600260205260409020546060906001600160a01b03166109d95760405162461bcd60e51b81526020600482015260116024820152702737b732bc34b9ba32b73a103a37b5b2b760791b60448201526064016104b6565b6000828152600b602052604090205460ff16610a0557602a82146109fe576009610a08565b600c610a08565b600a5b8054610a1390611726565b80601f0160208091040260200160405190810160405280929190818152602001828054610a3f90611726565b8015610a8c5780601f10610a6157610100808354040283529160200191610a8c565b820191906000526020600020905b815481529060010190602001808311610a6f57829003601f168201915b50505050509050919050565b6006546001600160a01b03163314610ac25760405162461bcd60e51b81526004016104b690611802565b6001600160a01b038116610b275760405162461bcd60e51b815260206004820152602660248201527f4f776e61626c653a206e6577206f776e657220697320746865207a65726f206160448201526564647265737360d01b60648201526084016104b6565b6107f581610f97565b6006546001600160a01b03163314610b5a5760405162461bcd60e51b81526004016104b690611802565b600880546001600160a01b0319166001600160a01b0392909216919091179055565b600081815260046020526040902080546001600160a01b0319166001600160a01b0384169081179091558190610bb1826107f8565b6001600160a01b03167f8c5be1e5ebec7d5bd14f71427d1e84f3dd0314c0f7b2291e5b200ac8c7c3b92560405160405180910390a45050565b6000818152600260205260408120546001600160a01b0316610c635760405162461bcd60e51b815260206004820152602c60248201527f4552433732313a206f70657261746f7220717565727920666f72206e6f6e657860448201526b34b9ba32b73a103a37b5b2b760a11b60648201526084016104b6565b6000610c6e836107f8565b9050806001600160a01b0316846001600160a01b03161480610ca95750836001600160a01b0316610c9e84610441565b6001600160a01b0316145b80610cd957506001600160a01b0380821660009081526005602090815260408083209388168352929052205460ff165b949350505050565b826001600160a01b0316610cf4826107f8565b6001600160a01b031614610d5c5760405162461bcd60e51b815260206004820152602960248201527f4552433732313a207472616e73666572206f6620746f6b656e2074686174206960448201526839903737ba1037bbb760b91b60648201526084016104b6565b6001600160a01b038216610dbe5760405162461bcd60e51b8152602060048201526024808201527f4552433732313a207472616e7366657220746f20746865207a65726f206164646044820152637265737360e01b60648201526084016104b6565b610dc9600082610b7c565b6001600160a01b0383166000908152600360205260408120805460019290610df2908490611837565b90915550506001600160a01b0382166000908152600360205260408120805460019290610e209084906117c8565b909155505060008181526002602052604080822080546001600160a01b0319166001600160a01b0386811691821790925591518493918716917fddf252ad1be2c89b69c2b068fc378daa952ba7f163c4a11628f55a4df523b3ef91a4505050565b6000444233600754604051602001610ec49493929190938452602084019290925260601b6bffffffffffffffffffffffff19166040830152605482015260740190565b6040516020818303038152906040528051906020012060001c905090565b6106888282604051806020016040528060008152506110eb565b6000610f07826107f8565b9050610f14600083610b7c565b6001600160a01b0381166000908152600360205260408120805460019290610f3d908490611837565b909155505060008281526002602052604080822080546001600160a01b0319169055518391906001600160a01b038416907fddf252ad1be2c89b69c2b068fc378daa952ba7f163c4a11628f55a4df523b3ef908390a45050565b600680546001600160a01b038381166001600160a01b0319831681179093556040519116919082907f8be0079c531659141344cd1fd0a4f28419497f9722a3daafe3b4186f6b6457e090600090a35050565b816001600160a01b0316836001600160a01b0316141561104b5760405162461bcd60e51b815260206004820152601960248201527f4552433732313a20617070726f766520746f2063616c6c65720000000000000060448201526064016104b6565b6001600160a01b03838116600081815260056020908152604080832094871680845294825291829020805460ff191686151590811790915591519182527f17307eab39ab6107e8899845ad3d59bd9653f200f220920489ca2b5937696c31910160405180910390a3505050565b6110c3848484610ce1565b6110cf8484848461111e565b6109785760405162461bcd60e51b81526004016104b69061184e565b6110f5838361122b565b611102600084848461111e565b6105ec5760405162461bcd60e51b81526004016104b69061184e565b60006001600160a01b0384163b1561122057604051630a85bd0160e11b81526001600160a01b0385169063150b7a02906111629033908990889088906004016118a0565b602060405180830381600087803b15801561117c57600080fd5b505af19250505080156111ac575060408051601f3d908101601f191682019092526111a9918101906118dd565b60015b611206573d8080156111da576040519150601f19603f3d011682016040523d82523d6000602084013e6111df565b606091505b5080516111fe5760405162461bcd60e51b81526004016104b69061184e565b805181602001fd5b6001600160e01b031916630a85bd0160e11b149050610cd9565b506001949350505050565b6001600160a01b0382166112815760405162461bcd60e51b815260206004820181905260248201527f4552433732313a206d696e7420746f20746865207a65726f206164647265737360448201526064016104b6565b6000818152600260205260409020546001600160a01b0316156112e65760405162461bcd60e51b815260206004820152601c60248201527f4552433732313a20746f6b656e20616c7265616479206d696e7465640000000060448201526064016104b6565b6001600160a01b038216600090815260036020526040812080546001929061130f9084906117c8565b909155505060008181526002602052604080822080546001600160a01b0319166001600160a01b03861690811790915590518392907fddf252ad1be2c89b69c2b068fc378daa952ba7f163c4a11628f55a4df523b3ef908290a45050565b82805461137990611726565b90600052602060002090601f01602090048101928261139b57600085556113e1565b82601f106113b457805160ff19168380011785556113e1565b828001600101855582156113e1579182015b828111156113e15782518255916020019190600101906113c6565b506113ed9291506113f1565b5090565b5b808211156113ed57600081556001016113f2565b6001600160e01b0319811681146107f557600080fd5b60006020828403121561142e57600080fd5b813561143981611406565b9392505050565b6000815180845260005b818110156114665760208185018101518683018201520161144a565b81811115611478576000602083870101525b50601f01601f19169290920160200192915050565b6020815260006114396020830184611440565b6000602082840312156114b257600080fd5b5035919050565b80356001600160a01b03811681146114d057600080fd5b919050565b600080604083850312156114e857600080fd5b6114f1836114b9565b946020939093013593505050565b634e487b7160e01b600052604160045260246000fd5b600067ffffffffffffffff80841115611530576115306114ff565b604051601f8501601f19908116603f01168101908282118183101715611558576115586114ff565b8160405280935085815286868601111561157157600080fd5b858560208301376000602087830101525050509392505050565b6000806040838503121561159e57600080fd5b823567ffffffffffffffff8111156115b557600080fd5b8301601f810185136115c657600080fd5b6115d585823560208401611515565b95602094909401359450505050565b6000806000606084860312156115f957600080fd5b611602846114b9565b9250611610602085016114b9565b9150604084013590509250925092565b60006020828403121561163257600080fd5b611439826114b9565b6000806040838503121561164e57600080fd5b611657836114b9565b91506020830135801515811461166c57600080fd5b809150509250929050565b6000806000806080858703121561168d57600080fd5b611696856114b9565b93506116a4602086016114b9565b925060408501359150606085013567ffffffffffffffff8111156116c757600080fd5b8501601f810187136116d857600080fd5b6116e787823560208401611515565b91505092959194509250565b6000806040838503121561170657600080fd5b61170f836114b9565b915061171d602084016114b9565b90509250929050565b600181811c9082168061173a57607f821691505b6020821081141561175b57634e487b7160e01b600052602260045260246000fd5b50919050565b60208082526031908201527f4552433732313a207472616e736665722063616c6c6572206973206e6f74206f6040820152701ddb995c881b9bdc88185c1c1c9bdd9959607a1b606082015260800190565b634e487b7160e01b600052601160045260246000fd5b600082198211156117db576117db6117b2565b500190565b6000826117fd57634e487b7160e01b600052601260045260246000fd5b500690565b6020808252818101527f4f776e61626c653a2063616c6c6572206973206e6f7420746865206f776e6572604082015260600190565b600082821015611849576118496117b2565b500390565b60208082526032908201527f4552433732313a207472616e7366657220746f206e6f6e20455243373231526560408201527131b2b4bb32b91034b6b83632b6b2b73a32b960711b606082015260800190565b6001600160a01b03858116825284166020820152604081018390526080606082018190526000906118d390830184611440565b9695505050505050565b6000602082840312156118ef57600080fd5b81516114398161140656fea2646970667358221220f8bca0856fd05d4ff800e1d973f8fe6239a987474b3a6f9ef99a6961bc0b049864736f6c63430008090033",
  "devdoc": {
    "kind": "dev",
    "methods": {
      "approve(address,uint256)": {
        "details": "See {IERC721-approve}."
      },
      "balanceOf(address)": {
        "details": "See {IERC721-balanceOf}."
      },
      "burn(uint256)": {
        "details": "Burns `tokenId`. See {ERC721-_burn}. Requirements: - The caller must own `tokenId` or be an approved operator."
      },
      "getApproved(uint256)": {
        "details": "See {IERC721-getApproved}."
      },
      "isApprovedForAll(address,address)": {
        "details": "See {IERC721-isApprovedForAll}."
      },
      "name()": {
        "details": "See {IERC721Metadata-name}."
      },
      "owner()": {
        "details": "Returns the address of the current owner."
      },
      "ownerOf(uint256)": {
        "details": "See {IERC721-ownerOf}."
      },
      "renounceOwnership()": {
        "details": "Leaves the contract without owner. It will not be possible to call `onlyOwner` functions anymore. Can only be called by the current owner. NOTE: Renouncing ownership will leave the contract without an owner, thereby removing any functionality that is only available to the owner."
      },
      "safeTransferFrom(address,address,uint256)": {
        "details": "See {IERC721-safeTransferFrom}."
      },
      "safeTransferFrom(address,address,uint256,bytes)": {
        "details": "See {IERC721-safeTransferFrom}."
      },
      "setApprovalForAll(address,bool)": {
        "details": "See {IERC721-setApprovalForAll}."
      },
      "supportsInterface(bytes4)": {
        "details": "See {IERC165-supportsInterface}."
      },
      "symbol()": {
        "details": "See {IERC721Metadata-symbol}."
      },
      "tokenURI(uint256)": {
        "details": "See {IERC721Metadata-tokenURI}."
      },
      "transferFrom(address,address,uint256)": {
        "details": "See {IERC721-transferFrom}."
      },
      "transferOwnership(address)": {
        "details": "Transfers ownership of the contract to a new account (`newOwner`). Can only be called by the current owner."
      }
    },
    "version": 1
  },
  "userdoc": {
    "kind": "user",
    "methods": {},
    "version": 1
  },
  "storageLayout": {
    "storage": [
      {
        "astId": 512,
        "contract": "contracts/TheUbiquiStick.sol:TheUbiquityStick",
        "label": "_name",
        "offset": 0,
        "slot": "0",
        "type": "t_string_storage"
      },
      {
        "astId": 514,
        "contract": "contracts/TheUbiquiStick.sol:TheUbiquityStick",
        "label": "_symbol",
        "offset": 0,
        "slot": "1",
        "type": "t_string_storage"
      },
      {
        "astId": 518,
        "contract": "contracts/TheUbiquiStick.sol:TheUbiquityStick",
        "label": "_owners",
        "offset": 0,
        "slot": "2",
        "type": "t_mapping(t_uint256,t_address)"
      },
      {
        "astId": 522,
        "contract": "contracts/TheUbiquiStick.sol:TheUbiquityStick",
        "label": "_balances",
        "offset": 0,
        "slot": "3",
        "type": "t_mapping(t_address,t_uint256)"
      },
      {
        "astId": 526,
        "contract": "contracts/TheUbiquiStick.sol:TheUbiquityStick",
        "label": "_tokenApprovals",
        "offset": 0,
        "slot": "4",
        "type": "t_mapping(t_uint256,t_address)"
      },
      {
        "astId": 532,
        "contract": "contracts/TheUbiquiStick.sol:TheUbiquityStick",
        "label": "_operatorApprovals",
        "offset": 0,
        "slot": "5",
        "type": "t_mapping(t_address,t_mapping(t_address,t_bool))"
      },
      {
        "astId": 389,
        "contract": "contracts/TheUbiquiStick.sol:TheUbiquityStick",
        "label": "_owner",
        "offset": 0,
        "slot": "6",
        "type": "t_address"
      },
      {
        "astId": 2121,
        "contract": "contracts/TheUbiquiStick.sol:TheUbiquityStick",
        "label": "tokenIdNext",
        "offset": 0,
        "slot": "7",
        "type": "t_uint256"
      },
      {
        "astId": 2123,
        "contract": "contracts/TheUbiquiStick.sol:TheUbiquityStick",
        "label": "minter",
        "offset": 0,
        "slot": "8",
        "type": "t_address"
      },
      {
        "astId": 2125,
        "contract": "contracts/TheUbiquiStick.sol:TheUbiquityStick",
        "label": "_tokenURI",
        "offset": 0,
        "slot": "9",
        "type": "t_string_storage"
      },
      {
        "astId": 2130,
        "contract": "contracts/TheUbiquiStick.sol:TheUbiquityStick",
        "label": "_goldTokenURI",
        "offset": 0,
        "slot": "10",
        "type": "t_string_storage"
      },
      {
        "astId": 2134,
        "contract": "contracts/TheUbiquiStick.sol:TheUbiquityStick",
        "label": "gold",
        "offset": 0,
        "slot": "11",
        "type": "t_mapping(t_uint256,t_bool)"
      },
      {
        "astId": 2142,
        "contract": "contracts/TheUbiquiStick.sol:TheUbiquityStick",
        "label": "_invisibleTokenURI",
        "offset": 0,
        "slot": "12",
        "type": "t_string_storage"
      }
    ],
    "types": {
      "t_address": {
        "encoding": "inplace",
        "label": "address",
        "numberOfBytes": "20"
      },
      "t_bool": {
        "encoding": "inplace",
        "label": "bool",
        "numberOfBytes": "1"
      },
      "t_mapping(t_address,t_bool)": {
        "encoding": "mapping",
        "key": "t_address",
        "label": "mapping(address => bool)",
        "numberOfBytes": "32",
        "value": "t_bool"
      },
      "t_mapping(t_address,t_mapping(t_address,t_bool))": {
        "encoding": "mapping",
        "key": "t_address",
        "label": "mapping(address => mapping(address => bool))",
        "numberOfBytes": "32",
        "value": "t_mapping(t_address,t_bool)"
      },
      "t_mapping(t_address,t_uint256)": {
        "encoding": "mapping",
        "key": "t_address",
        "label": "mapping(address => uint256)",
        "numberOfBytes": "32",
        "value": "t_uint256"
      },
      "t_mapping(t_uint256,t_address)": {
        "encoding": "mapping",
        "key": "t_uint256",
        "label": "mapping(uint256 => address)",
        "numberOfBytes": "32",
        "value": "t_address"
      },
      "t_mapping(t_uint256,t_bool)": {
        "encoding": "mapping",
        "key": "t_uint256",
        "label": "mapping(uint256 => bool)",
        "numberOfBytes": "32",
        "value": "t_bool"
      },
      "t_string_storage": {
        "encoding": "bytes",
        "label": "string",
        "numberOfBytes": "32"
      },
      "t_uint256": {
        "encoding": "inplace",
        "label": "uint256",
        "numberOfBytes": "32"
      }
    }
  }
}