{
  "address": "0x636BeA69422e087eA87Ae6A98300065C11826b2C",
  "abi": [
    {
      "inputs": [
        {
          "internalType": "address",
          "name": "_manager",
          "type": "address"
        }
      ],
      "stateMutability": "nonpayable",
      "type": "constructor"
    },
    {
      "anonymous": false,
      "inputs": [
        {
          "indexed": true,
          "internalType": "address",
          "name": "owner",
          "type": "address"
        },
        {
          "indexed": true,
          "internalType": "address",
          "name": "approved",
          "type": "address"
        },
        {
          "indexed": true,
          "internalType": "uint256",
          "name": "tokenId",
          "type": "uint256"
        }
      ],
      "name": "Approval",
      "type": "event"
    },
    {
      "anonymous": false,
      "inputs": [
        {
          "indexed": true,
          "internalType": "address",
          "name": "owner",
          "type": "address"
        },
        {
          "indexed": true,
          "internalType": "address",
          "name": "operator",
          "type": "address"
        },
        {
          "indexed": false,
          "internalType": "bool",
          "name": "approved",
          "type": "bool"
        }
      ],
      "name": "ApprovalForAll",
      "type": "event"
    },
    {
      "anonymous": false,
      "inputs": [
        {
          "indexed": true,
          "internalType": "address",
          "name": "from",
          "type": "address"
        },
        {
          "indexed": true,
          "internalType": "address",
          "name": "to",
          "type": "address"
        },
        {
          "indexed": true,
          "internalType": "uint256",
          "name": "tokenId",
          "type": "uint256"
        }
      ],
      "name": "Transfer",
      "type": "event"
    },
    {
      "inputs": [
        {
          "internalType": "address",
          "name": "to",
          "type": "address"
        },
        {
          "internalType": "uint256",
          "name": "tokenId",
          "type": "uint256"
        }
      ],
      "name": "approve",
      "outputs": [],
      "stateMutability": "nonpayable",
      "type": "function"
    },
    {
      "inputs": [
        {
          "internalType": "address",
          "name": "owner",
          "type": "address"
        }
      ],
      "name": "balanceOf",
      "outputs": [
        {
          "internalType": "uint256",
          "name": "",
          "type": "uint256"
        }
      ],
      "stateMutability": "view",
      "type": "function"
    },
    {
      "inputs": [
        {
          "internalType": "uint256",
          "name": "tokenId",
          "type": "uint256"
        }
      ],
      "name": "burn",
      "outputs": [],
      "stateMutability": "nonpayable",
      "type": "function"
    },
    {
      "inputs": [
        {
          "internalType": "uint256",
          "name": "tokenId",
          "type": "uint256"
        }
      ],
      "name": "getApproved",
      "outputs": [
        {
          "internalType": "address",
          "name": "",
          "type": "address"
        }
      ],
      "stateMutability": "view",
      "type": "function"
    },
    {
      "inputs": [
        {
          "internalType": "address",
          "name": "owner",
          "type": "address"
        },
        {
          "internalType": "address",
          "name": "operator",
          "type": "address"
        }
      ],
      "name": "isApprovedForAll",
      "outputs": [
        {
          "internalType": "bool",
          "name": "",
          "type": "bool"
        }
      ],
      "stateMutability": "view",
      "type": "function"
    },
    {
      "inputs": [],
      "name": "manager",
      "outputs": [
        {
          "internalType": "address",
          "name": "",
          "type": "address"
        }
      ],
      "stateMutability": "view",
      "type": "function"
    },
    {
      "inputs": [],
      "name": "name",
      "outputs": [
        {
          "internalType": "string",
          "name": "",
          "type": "string"
        }
      ],
      "stateMutability": "view",
      "type": "function"
    },
    {
      "inputs": [
        {
          "internalType": "uint256",
          "name": "tokenId",
          "type": "uint256"
        }
      ],
      "name": "ownerOf",
      "outputs": [
        {
          "internalType": "address",
          "name": "",
          "type": "address"
        }
      ],
      "stateMutability": "view",
      "type": "function"
    },
    {
      "inputs": [
        {
          "internalType": "address",
          "name": "to",
          "type": "address"
        }
      ],
      "name": "safeMint",
      "outputs": [],
      "stateMutability": "nonpayable",
      "type": "function"
    },
    {
      "inputs": [
        {
          "internalType": "address",
          "name": "from",
          "type": "address"
        },
        {
          "internalType": "address",
          "name": "to",
          "type": "address"
        },
        {
          "internalType": "uint256",
          "name": "tokenId",
          "type": "uint256"
        }
      ],
      "name": "safeTransferFrom",
      "outputs": [],
      "stateMutability": "nonpayable",
      "type": "function"
    },
    {
      "inputs": [
        {
          "internalType": "address",
          "name": "from",
          "type": "address"
        },
        {
          "internalType": "address",
          "name": "to",
          "type": "address"
        },
        {
          "internalType": "uint256",
          "name": "tokenId",
          "type": "uint256"
        },
        {
          "internalType": "bytes",
          "name": "_data",
          "type": "bytes"
        }
      ],
      "name": "safeTransferFrom",
      "outputs": [],
      "stateMutability": "nonpayable",
      "type": "function"
    },
    {
      "inputs": [
        {
          "internalType": "address",
          "name": "operator",
          "type": "address"
        },
        {
          "internalType": "bool",
          "name": "approved",
          "type": "bool"
        }
      ],
      "name": "setApprovalForAll",
      "outputs": [],
      "stateMutability": "nonpayable",
      "type": "function"
    },
    {
      "inputs": [
        {
          "internalType": "string",
          "name": "tokenURI_",
          "type": "string"
        }
      ],
      "name": "setTokenURI",
      "outputs": [],
      "stateMutability": "nonpayable",
      "type": "function"
    },
    {
      "inputs": [
        {
          "internalType": "bytes4",
          "name": "interfaceId",
          "type": "bytes4"
        }
      ],
      "name": "supportsInterface",
      "outputs": [
        {
          "internalType": "bool",
          "name": "",
          "type": "bool"
        }
      ],
      "stateMutability": "view",
      "type": "function"
    },
    {
      "inputs": [],
      "name": "symbol",
      "outputs": [
        {
          "internalType": "string",
          "name": "",
          "type": "string"
        }
      ],
      "stateMutability": "view",
      "type": "function"
    },
    {
      "inputs": [],
      "name": "tokenIdCounter",
      "outputs": [
        {
          "internalType": "uint256",
          "name": "",
          "type": "uint256"
        }
      ],
      "stateMutability": "view",
      "type": "function"
    },
    {
      "inputs": [
        {
          "internalType": "uint256",
          "name": "tokenId",
          "type": "uint256"
        }
      ],
      "name": "tokenURI",
      "outputs": [
        {
          "internalType": "string",
          "name": "",
          "type": "string"
        }
      ],
      "stateMutability": "view",
      "type": "function"
    },
    {
      "inputs": [
        {
          "internalType": "address",
          "name": "from",
          "type": "address"
        },
        {
          "internalType": "address",
          "name": "to",
          "type": "address"
        },
        {
          "internalType": "uint256",
          "name": "tokenId",
          "type": "uint256"
        }
      ],
      "name": "transferFrom",
      "outputs": [],
      "stateMutability": "nonpayable",
      "type": "function"
    }
  ],
  "transactionHash": "0xc64833b00318d431b035b1ba5a74bd6cc0dd90cfa2bc3b8fd032d621e8b49f2c",
  "args": [
    "0x4DA97a8b831C345dBe6d16FF7432DF2b7b776d98"
  ],
  "solcInputHash": "44d76959da0253b8ba3a0370704f78bd",
  "bytecode": "0x60806040523480156200001157600080fd5b50604051620019d2380380620019d283398101604081905262000034916200016c565b604080518082018252600f81526e54686520556269717569537469636b60881b6020808301918252835180850190945260038452624b455960e81b9084015281519192916200008691600091620000c6565b5080516200009c906001906020840190620000c6565b5050600780546001600160a01b0319166001600160a01b03939093169290921790915550620001db565b828054620000d4906200019e565b90600052602060002090601f016020900481019282620000f8576000855562000143565b82601f106200011357805160ff191683800117855562000143565b8280016001018555821562000143579182015b828111156200014357825182559160200191906001019062000126565b506200015192915062000155565b5090565b5b8082111562000151576000815560010162000156565b6000602082840312156200017f57600080fd5b81516001600160a01b03811681146200019757600080fd5b9392505050565b600181811c90821680620001b357607f821691505b60208210811415620001d557634e487b7160e01b600052602260045260246000fd5b50919050565b6117e780620001eb6000396000f3fe608060405234801561001057600080fd5b50600436106101165760003560e01c80636352211e116100a2578063a22cb46511610071578063a22cb4651461023c578063b88d4fde1461024f578063c87b56dd14610262578063e0df5b6f14610275578063e985e9c51461028857600080fd5b80636352211e146101f757806370a082311461020a57806395d89b411461022b57806398bdf6f51461023357600080fd5b806323b872dd116100e957806323b872dd1461019857806340d097c3146101ab57806342842e0e146101be57806342966c68146101d1578063481c6a75146101e457600080fd5b806301ffc9a71461011b57806306fdde0314610143578063081812fc14610158578063095ea7b314610183575b600080fd5b61012e6101293660046112fb565b6102c4565b60405190151581526020015b60405180910390f35b61014b610316565b60405161013a919061136c565b61016b61016636600461137f565b6103a8565b6040516001600160a01b03909116815260200161013a565b6101966101913660046113b4565b610442565b005b6101966101a63660046113de565b610558565b6101966101b936600461141a565b61058a565b6101966101cc3660046113de565b6106f8565b6101966101df36600461137f565b610713565b60075461016b906001600160a01b031681565b61016b61020536600461137f565b61078d565b61021d61021836600461141a565b610804565b60405190815260200161013a565b61014b61088b565b61021d60065481565b61019661024a366004611443565b61089a565b61019661025d366004611506565b61095f565b61014b61027036600461137f565b610997565b610196610283366004611582565b610a84565b61012e6102963660046115cb565b6001600160a01b03918216600090815260056020908152604080832093909416825291909152205460ff1690565b60006001600160e01b031982166380ac58cd60e01b14806102f557506001600160e01b03198216635b5e139f60e01b145b8061031057506301ffc9a760e01b6001600160e01b03198316145b92915050565b606060008054610325906115fe565b80601f0160208091040260200160405190810160405280929190818152602001828054610351906115fe565b801561039e5780601f106103735761010080835404028352916020019161039e565b820191906000526020600020905b81548152906001019060200180831161038157829003601f168201915b5050505050905090565b6000818152600260205260408120546001600160a01b03166104265760405162461bcd60e51b815260206004820152602c60248201527f4552433732313a20617070726f76656420717565727920666f72206e6f6e657860448201526b34b9ba32b73a103a37b5b2b760a11b60648201526084015b60405180910390fd5b506000908152600460205260409020546001600160a01b031690565b600061044d8261078d565b9050806001600160a01b0316836001600160a01b031614156104bb5760405162461bcd60e51b815260206004820152602160248201527f4552433732313a20617070726f76616c20746f2063757272656e74206f776e656044820152603960f91b606482015260840161041d565b336001600160a01b03821614806104d757506104d78133610296565b6105495760405162461bcd60e51b815260206004820152603860248201527f4552433732313a20617070726f76652063616c6c6572206973206e6f74206f7760448201527f6e6572206e6f7220617070726f76656420666f7220616c6c0000000000000000606482015260840161041d565b6105538383610bdd565b505050565b610563335b82610c4b565b61057f5760405162461bcd60e51b815260040161041d90611639565b610553838383610d42565b60075460408051632f533cb760e01b815290516001600160a01b03909216916391d14854918391632f533cb791600480820192602092909190829003018186803b1580156105d757600080fd5b505afa1580156105eb573d6000803e3d6000fd5b505050506040513d601f19601f8201168201806040525081019061060f919061168a565b6040516001600160e01b031960e084901b168152600481019190915233602482015260440160206040518083038186803b15801561064c57600080fd5b505afa158015610660573d6000803e3d6000fd5b505050506040513d601f19601f8201168201806040525081019061068491906116a3565b6106d05760405162461bcd60e51b815260206004820152601c60248201527f476f7665726e616e636520746f6b656e3a206e6f74206d696e74657200000000604482015260640161041d565b600680549060019060006106e483856116d6565b909155506106f490508282610ee2565b5050565b6105538383836040518060200160405280600081525061095f565b61071c3361055d565b6107815760405162461bcd60e51b815260206004820152603060248201527f4552433732314275726e61626c653a2063616c6c6572206973206e6f74206f7760448201526f1b995c881b9bdc88185c1c1c9bdd995960821b606482015260840161041d565b61078a81610efc565b50565b6000818152600260205260408120546001600160a01b0316806103105760405162461bcd60e51b815260206004820152602960248201527f4552433732313a206f776e657220717565727920666f72206e6f6e657869737460448201526832b73a103a37b5b2b760b91b606482015260840161041d565b60006001600160a01b03821661086f5760405162461bcd60e51b815260206004820152602a60248201527f4552433732313a2062616c616e636520717565727920666f7220746865207a65604482015269726f206164647265737360b01b606482015260840161041d565b506001600160a01b031660009081526003602052604090205490565b606060018054610325906115fe565b6001600160a01b0382163314156108f35760405162461bcd60e51b815260206004820152601960248201527f4552433732313a20617070726f766520746f2063616c6c657200000000000000604482015260640161041d565b3360008181526005602090815260408083206001600160a01b03871680855290835292819020805460ff191686151590811790915590519081529192917f17307eab39ab6107e8899845ad3d59bd9653f200f220920489ca2b5937696c31910160405180910390a35050565b6109693383610c4b565b6109855760405162461bcd60e51b815260040161041d90611639565b61099184848484610f97565b50505050565b6000818152600260205260409020546060906001600160a01b03166109f25760405162461bcd60e51b81526020600482015260116024820152702737b732bc34b9ba32b73a103a37b5b2b760791b604482015260640161041d565b600880546109ff906115fe565b80601f0160208091040260200160405190810160405280929190818152602001828054610a2b906115fe565b8015610a785780601f10610a4d57610100808354040283529160200191610a78565b820191906000526020600020905b815481529060010190602001808311610a5b57829003601f168201915b50505050509050919050565b60075460408051632f533cb760e01b815290516001600160a01b03909216916391d14854918391632f533cb791600480820192602092909190829003018186803b158015610ad157600080fd5b505afa158015610ae5573d6000803e3d6000fd5b505050506040513d601f19601f82011682018060405250810190610b09919061168a565b6040516001600160e01b031960e084901b168152600481019190915233602482015260440160206040518083038186803b158015610b4657600080fd5b505afa158015610b5a573d6000803e3d6000fd5b505050506040513d601f19601f82011682018060405250810190610b7e91906116a3565b610bca5760405162461bcd60e51b815260206004820152601c60248201527f476f7665726e616e636520746f6b656e3a206e6f74206d696e74657200000000604482015260640161041d565b80516106f490600890602084019061124c565b600081815260046020526040902080546001600160a01b0319166001600160a01b0384169081179091558190610c128261078d565b6001600160a01b03167f8c5be1e5ebec7d5bd14f71427d1e84f3dd0314c0f7b2291e5b200ac8c7c3b92560405160405180910390a45050565b6000818152600260205260408120546001600160a01b0316610cc45760405162461bcd60e51b815260206004820152602c60248201527f4552433732313a206f70657261746f7220717565727920666f72206e6f6e657860448201526b34b9ba32b73a103a37b5b2b760a11b606482015260840161041d565b6000610ccf8361078d565b9050806001600160a01b0316846001600160a01b03161480610d0a5750836001600160a01b0316610cff846103a8565b6001600160a01b0316145b80610d3a57506001600160a01b0380821660009081526005602090815260408083209388168352929052205460ff165b949350505050565b826001600160a01b0316610d558261078d565b6001600160a01b031614610dbd5760405162461bcd60e51b815260206004820152602960248201527f4552433732313a207472616e73666572206f6620746f6b656e2074686174206960448201526839903737ba1037bbb760b91b606482015260840161041d565b6001600160a01b038216610e1f5760405162461bcd60e51b8152602060048201526024808201527f4552433732313a207472616e7366657220746f20746865207a65726f206164646044820152637265737360e01b606482015260840161041d565b610e2a600082610bdd565b6001600160a01b0383166000908152600360205260408120805460019290610e539084906116ee565b90915550506001600160a01b0382166000908152600360205260408120805460019290610e819084906116d6565b909155505060008181526002602052604080822080546001600160a01b0319166001600160a01b0386811691821790925591518493918716917fddf252ad1be2c89b69c2b068fc378daa952ba7f163c4a11628f55a4df523b3ef91a4505050565b6106f4828260405180602001604052806000815250610fca565b6000610f078261078d565b9050610f14600083610bdd565b6001600160a01b0381166000908152600360205260408120805460019290610f3d9084906116ee565b909155505060008281526002602052604080822080546001600160a01b0319169055518391906001600160a01b038416907fddf252ad1be2c89b69c2b068fc378daa952ba7f163c4a11628f55a4df523b3ef908390a45050565b610fa2848484610d42565b610fae84848484610ffd565b6109915760405162461bcd60e51b815260040161041d90611705565b610fd4838361110a565b610fe16000848484610ffd565b6105535760405162461bcd60e51b815260040161041d90611705565b60006001600160a01b0384163b156110ff57604051630a85bd0160e11b81526001600160a01b0385169063150b7a0290611041903390899088908890600401611757565b602060405180830381600087803b15801561105b57600080fd5b505af192505050801561108b575060408051601f3d908101601f1916820190925261108891810190611794565b60015b6110e5573d8080156110b9576040519150601f19603f3d011682016040523d82523d6000602084013e6110be565b606091505b5080516110dd5760405162461bcd60e51b815260040161041d90611705565b805181602001fd5b6001600160e01b031916630a85bd0160e11b149050610d3a565b506001949350505050565b6001600160a01b0382166111605760405162461bcd60e51b815260206004820181905260248201527f4552433732313a206d696e7420746f20746865207a65726f2061646472657373604482015260640161041d565b6000818152600260205260409020546001600160a01b0316156111c55760405162461bcd60e51b815260206004820152601c60248201527f4552433732313a20746f6b656e20616c7265616479206d696e74656400000000604482015260640161041d565b6001600160a01b03821660009081526003602052604081208054600192906111ee9084906116d6565b909155505060008181526002602052604080822080546001600160a01b0319166001600160a01b03861690811790915590518392907fddf252ad1be2c89b69c2b068fc378daa952ba7f163c4a11628f55a4df523b3ef908290a45050565b828054611258906115fe565b90600052602060002090601f01602090048101928261127a57600085556112c0565b82601f1061129357805160ff19168380011785556112c0565b828001600101855582156112c0579182015b828111156112c05782518255916020019190600101906112a5565b506112cc9291506112d0565b5090565b5b808211156112cc57600081556001016112d1565b6001600160e01b03198116811461078a57600080fd5b60006020828403121561130d57600080fd5b8135611318816112e5565b9392505050565b6000815180845260005b8181101561134557602081850181015186830182015201611329565b81811115611357576000602083870101525b50601f01601f19169290920160200192915050565b602081526000611318602083018461131f565b60006020828403121561139157600080fd5b5035919050565b80356001600160a01b03811681146113af57600080fd5b919050565b600080604083850312156113c757600080fd5b6113d083611398565b946020939093013593505050565b6000806000606084860312156113f357600080fd5b6113fc84611398565b925061140a60208501611398565b9150604084013590509250925092565b60006020828403121561142c57600080fd5b61131882611398565b801515811461078a57600080fd5b6000806040838503121561145657600080fd5b61145f83611398565b9150602083013561146f81611435565b809150509250929050565b634e487b7160e01b600052604160045260246000fd5b600067ffffffffffffffff808411156114ab576114ab61147a565b604051601f8501601f19908116603f011681019082821181831017156114d3576114d361147a565b816040528093508581528686860111156114ec57600080fd5b858560208301376000602087830101525050509392505050565b6000806000806080858703121561151c57600080fd5b61152585611398565b935061153360208601611398565b925060408501359150606085013567ffffffffffffffff81111561155657600080fd5b8501601f8101871361156757600080fd5b61157687823560208401611490565b91505092959194509250565b60006020828403121561159457600080fd5b813567ffffffffffffffff8111156115ab57600080fd5b8201601f810184136115bc57600080fd5b610d3a84823560208401611490565b600080604083850312156115de57600080fd5b6115e783611398565b91506115f560208401611398565b90509250929050565b600181811c9082168061161257607f821691505b6020821081141561163357634e487b7160e01b600052602260045260246000fd5b50919050565b60208082526031908201527f4552433732313a207472616e736665722063616c6c6572206973206e6f74206f6040820152701ddb995c881b9bdc88185c1c1c9bdd9959607a1b606082015260800190565b60006020828403121561169c57600080fd5b5051919050565b6000602082840312156116b557600080fd5b815161131881611435565b634e487b7160e01b600052601160045260246000fd5b600082198211156116e9576116e96116c0565b500190565b600082821015611700576117006116c0565b500390565b60208082526032908201527f4552433732313a207472616e7366657220746f206e6f6e20455243373231526560408201527131b2b4bb32b91034b6b83632b6b2b73a32b960711b606082015260800190565b6001600160a01b038581168252841660208201526040810183905260806060820181905260009061178a9083018461131f565b9695505050505050565b6000602082840312156117a657600080fd5b8151611318816112e556fea26469706673582212209e3c620aee1c3d141c10cca7ea3c37c8560b910f6fb7894f3a2ae0d04736c88a64736f6c63430008090033",
  "devdoc": {
    "kind": "dev",
    "methods": {
      "approve(address,uint256)": {
        "details": "See {IERC721-approve}."
      },
      "balanceOf(address)": {
        "details": "See {IERC721-balanceOf}."
      },
      "burn(uint256)": {
        "details": "Burns `tokenId`. See {ERC721-_burn}. Requirements: - The caller must own `tokenId` or be an approved operator."
      },
      "getApproved(uint256)": {
        "details": "See {IERC721-getApproved}."
      },
      "isApprovedForAll(address,address)": {
        "details": "See {IERC721-isApprovedForAll}."
      },
      "name()": {
        "details": "See {IERC721Metadata-name}."
      },
      "ownerOf(uint256)": {
        "details": "See {IERC721-ownerOf}."
      },
      "safeTransferFrom(address,address,uint256)": {
        "details": "See {IERC721-safeTransferFrom}."
      },
      "safeTransferFrom(address,address,uint256,bytes)": {
        "details": "See {IERC721-safeTransferFrom}."
      },
      "setApprovalForAll(address,bool)": {
        "details": "See {IERC721-setApprovalForAll}."
      },
      "supportsInterface(bytes4)": {
        "details": "See {IERC165-supportsInterface}."
      },
      "symbol()": {
        "details": "See {IERC721Metadata-symbol}."
      },
      "tokenURI(uint256)": {
        "details": "See {IERC721Metadata-tokenURI}."
      },
      "transferFrom(address,address,uint256)": {
        "details": "See {IERC721-transferFrom}."
      }
    },
    "version": 1
  },
  "userdoc": {
    "kind": "user",
    "methods": {},
    "version": 1
  },
  "storageLayout": {
    "storage": [
      {
        "astId": 405,
        "contract": "contracts/NftPass.sol:NftPass",
        "label": "_name",
        "offset": 0,
        "slot": "0",
        "type": "t_string_storage"
      },
      {
        "astId": 407,
        "contract": "contracts/NftPass.sol:NftPass",
        "label": "_symbol",
        "offset": 0,
        "slot": "1",
        "type": "t_string_storage"
      },
      {
        "astId": 411,
        "contract": "contracts/NftPass.sol:NftPass",
        "label": "_owners",
        "offset": 0,
        "slot": "2",
        "type": "t_mapping(t_uint256,t_address)"
      },
      {
        "astId": 415,
        "contract": "contracts/NftPass.sol:NftPass",
        "label": "_balances",
        "offset": 0,
        "slot": "3",
        "type": "t_mapping(t_address,t_uint256)"
      },
      {
        "astId": 419,
        "contract": "contracts/NftPass.sol:NftPass",
        "label": "_tokenApprovals",
        "offset": 0,
        "slot": "4",
        "type": "t_mapping(t_uint256,t_address)"
      },
      {
        "astId": 425,
        "contract": "contracts/NftPass.sol:NftPass",
        "label": "_operatorApprovals",
        "offset": 0,
        "slot": "5",
        "type": "t_mapping(t_address,t_mapping(t_address,t_bool))"
      },
      {
        "astId": 1982,
        "contract": "contracts/NftPass.sol:NftPass",
        "label": "tokenIdCounter",
        "offset": 0,
        "slot": "6",
        "type": "t_uint256"
      },
      {
        "astId": 1984,
        "contract": "contracts/NftPass.sol:NftPass",
        "label": "manager",
        "offset": 0,
        "slot": "7",
        "type": "t_address"
      },
      {
        "astId": 1986,
        "contract": "contracts/NftPass.sol:NftPass",
        "label": "_tokenURI",
        "offset": 0,
        "slot": "8",
        "type": "t_string_storage"
      }
    ],
    "types": {
      "t_address": {
        "encoding": "inplace",
        "label": "address",
        "numberOfBytes": "20"
      },
      "t_bool": {
        "encoding": "inplace",
        "label": "bool",
        "numberOfBytes": "1"
      },
      "t_mapping(t_address,t_bool)": {
        "encoding": "mapping",
        "key": "t_address",
        "label": "mapping(address => bool)",
        "numberOfBytes": "32",
        "value": "t_bool"
      },
      "t_mapping(t_address,t_mapping(t_address,t_bool))": {
        "encoding": "mapping",
        "key": "t_address",
        "label": "mapping(address => mapping(address => bool))",
        "numberOfBytes": "32",
        "value": "t_mapping(t_address,t_bool)"
      },
      "t_mapping(t_address,t_uint256)": {
        "encoding": "mapping",
        "key": "t_address",
        "label": "mapping(address => uint256)",
        "numberOfBytes": "32",
        "value": "t_uint256"
      },
      "t_mapping(t_uint256,t_address)": {
        "encoding": "mapping",
        "key": "t_uint256",
        "label": "mapping(uint256 => address)",
        "numberOfBytes": "32",
        "value": "t_address"
      },
      "t_string_storage": {
        "encoding": "bytes",
        "label": "string",
        "numberOfBytes": "32"
      },
      "t_uint256": {
        "encoding": "inplace",
        "label": "uint256",
        "numberOfBytes": "32"
      }
    }
  }
}