{
  "address": "0x2285c77CbB79B613B4De2dc995CfD5aC7dC929d9",
  "abi": [
    {
      "inputs": [
        {
          "internalType": "address",
          "name": "manager_",
          "type": "address"
        }
      ],
      "stateMutability": "nonpayable",
      "type": "constructor"
    },
    {
      "anonymous": false,
      "inputs": [
        {
          "indexed": true,
          "internalType": "address",
          "name": "owner",
          "type": "address"
        },
        {
          "indexed": true,
          "internalType": "address",
          "name": "approved",
          "type": "address"
        },
        {
          "indexed": true,
          "internalType": "uint256",
          "name": "tokenId",
          "type": "uint256"
        }
      ],
      "name": "Approval",
      "type": "event"
    },
    {
      "anonymous": false,
      "inputs": [
        {
          "indexed": true,
          "internalType": "address",
          "name": "owner",
          "type": "address"
        },
        {
          "indexed": true,
          "internalType": "address",
          "name": "operator",
          "type": "address"
        },
        {
          "indexed": false,
          "internalType": "bool",
          "name": "approved",
          "type": "bool"
        }
      ],
      "name": "ApprovalForAll",
      "type": "event"
    },
    {
      "anonymous": false,
      "inputs": [
        {
          "indexed": true,
          "internalType": "address",
          "name": "from",
          "type": "address"
        },
        {
          "indexed": true,
          "internalType": "address",
          "name": "to",
          "type": "address"
        },
        {
          "indexed": true,
          "internalType": "uint256",
          "name": "tokenId",
          "type": "uint256"
        }
      ],
      "name": "Transfer",
      "type": "event"
    },
    {
      "inputs": [
        {
          "internalType": "address",
          "name": "to",
          "type": "address"
        },
        {
          "internalType": "uint256",
          "name": "tokenId",
          "type": "uint256"
        }
      ],
      "name": "approve",
      "outputs": [],
      "stateMutability": "nonpayable",
      "type": "function"
    },
    {
      "inputs": [
        {
          "internalType": "address",
          "name": "owner",
          "type": "address"
        }
      ],
      "name": "balanceOf",
      "outputs": [
        {
          "internalType": "uint256",
          "name": "",
          "type": "uint256"
        }
      ],
      "stateMutability": "view",
      "type": "function"
    },
    {
      "inputs": [
        {
          "internalType": "uint256",
          "name": "tokenId",
          "type": "uint256"
        }
      ],
      "name": "burn",
      "outputs": [],
      "stateMutability": "nonpayable",
      "type": "function"
    },
    {
      "inputs": [
        {
          "internalType": "uint256",
          "name": "tokenId",
          "type": "uint256"
        }
      ],
      "name": "getApproved",
      "outputs": [
        {
          "internalType": "address",
          "name": "",
          "type": "address"
        }
      ],
      "stateMutability": "view",
      "type": "function"
    },
    {
      "inputs": [
        {
          "internalType": "uint256",
          "name": "",
          "type": "uint256"
        }
      ],
      "name": "gold",
      "outputs": [
        {
          "internalType": "bool",
          "name": "",
          "type": "bool"
        }
      ],
      "stateMutability": "view",
      "type": "function"
    },
    {
      "inputs": [
        {
          "internalType": "address",
          "name": "owner",
          "type": "address"
        },
        {
          "internalType": "address",
          "name": "operator",
          "type": "address"
        }
      ],
      "name": "isApprovedForAll",
      "outputs": [
        {
          "internalType": "bool",
          "name": "",
          "type": "bool"
        }
      ],
      "stateMutability": "view",
      "type": "function"
    },
    {
      "inputs": [],
      "name": "name",
      "outputs": [
        {
          "internalType": "string",
          "name": "",
          "type": "string"
        }
      ],
      "stateMutability": "view",
      "type": "function"
    },
    {
      "inputs": [
        {
          "internalType": "uint256",
          "name": "tokenId",
          "type": "uint256"
        }
      ],
      "name": "ownerOf",
      "outputs": [
        {
          "internalType": "address",
          "name": "",
          "type": "address"
        }
      ],
      "stateMutability": "view",
      "type": "function"
    },
    {
      "inputs": [
        {
          "internalType": "address",
          "name": "to",
          "type": "address"
        }
      ],
      "name": "safeMint",
      "outputs": [],
      "stateMutability": "nonpayable",
      "type": "function"
    },
    {
      "inputs": [
        {
          "internalType": "address",
          "name": "from",
          "type": "address"
        },
        {
          "internalType": "address",
          "name": "to",
          "type": "address"
        },
        {
          "internalType": "uint256",
          "name": "tokenId",
          "type": "uint256"
        }
      ],
      "name": "safeTransferFrom",
      "outputs": [],
      "stateMutability": "nonpayable",
      "type": "function"
    },
    {
      "inputs": [
        {
          "internalType": "address",
          "name": "from",
          "type": "address"
        },
        {
          "internalType": "address",
          "name": "to",
          "type": "address"
        },
        {
          "internalType": "uint256",
          "name": "tokenId",
          "type": "uint256"
        },
        {
          "internalType": "bytes",
          "name": "_data",
          "type": "bytes"
        }
      ],
      "name": "safeTransferFrom",
      "outputs": [],
      "stateMutability": "nonpayable",
      "type": "function"
    },
    {
      "inputs": [
        {
          "internalType": "address",
          "name": "operator",
          "type": "address"
        },
        {
          "internalType": "bool",
          "name": "approved",
          "type": "bool"
        }
      ],
      "name": "setApprovalForAll",
      "outputs": [],
      "stateMutability": "nonpayable",
      "type": "function"
    },
    {
      "inputs": [
        {
          "internalType": "string",
          "name": "tokenGoldURI_",
          "type": "string"
        }
      ],
      "name": "setTokenGoldURI",
      "outputs": [],
      "stateMutability": "nonpayable",
      "type": "function"
    },
    {
      "inputs": [
        {
          "internalType": "string",
          "name": "tokenURI_",
          "type": "string"
        }
      ],
      "name": "setTokenURI",
      "outputs": [],
      "stateMutability": "nonpayable",
      "type": "function"
    },
    {
      "inputs": [
        {
          "internalType": "bytes4",
          "name": "interfaceId",
          "type": "bytes4"
        }
      ],
      "name": "supportsInterface",
      "outputs": [
        {
          "internalType": "bool",
          "name": "",
          "type": "bool"
        }
      ],
      "stateMutability": "view",
      "type": "function"
    },
    {
      "inputs": [],
      "name": "symbol",
      "outputs": [
        {
          "internalType": "string",
          "name": "",
          "type": "string"
        }
      ],
      "stateMutability": "view",
      "type": "function"
    },
    {
      "inputs": [],
      "name": "tokenIdNext",
      "outputs": [
        {
          "internalType": "uint256",
          "name": "",
          "type": "uint256"
        }
      ],
      "stateMutability": "view",
      "type": "function"
    },
    {
      "inputs": [
        {
          "internalType": "uint256",
          "name": "tokenId",
          "type": "uint256"
        }
      ],
      "name": "tokenURI",
      "outputs": [
        {
          "internalType": "string",
          "name": "",
          "type": "string"
        }
      ],
      "stateMutability": "view",
      "type": "function"
    },
    {
      "inputs": [
        {
          "internalType": "address",
          "name": "from",
          "type": "address"
        },
        {
          "internalType": "address",
          "name": "to",
          "type": "address"
        },
        {
          "internalType": "uint256",
          "name": "tokenId",
          "type": "uint256"
        }
      ],
      "name": "transferFrom",
      "outputs": [],
      "stateMutability": "nonpayable",
      "type": "function"
    }
  ],
  "transactionHash": "0x7c46a0071a757af1e7d6e66516c39338a44b1c6f3f7d803ab667e3ef5f632e79",
  "args": [
    "0x83ff5d827C454CBe516Dd75bd770D0311fAA8539"
  ],
  "solcInputHash": "81a5e592c1330f9ae61e6518679d6443",
  "bytecode": "0x60806040526040600b553480156200001657600080fd5b5060405162001bd838038062001bd8833981016040819052620000399162000171565b604080518082018252600f81526e54686520556269717569537469636b60881b6020808301918252835180850190945260038452624b455960e81b9084015281519192916200008b91600091620000cb565b508051620000a1906001906020840190620000cb565b5050600780546001600160a01b0319166001600160a01b03939093169290921790915550620001e0565b828054620000d990620001a3565b90600052602060002090601f016020900481019282620000fd576000855562000148565b82601f106200011857805160ff191683800117855562000148565b8280016001018555821562000148579182015b82811115620001485782518255916020019190600101906200012b565b50620001569291506200015a565b5090565b5b808211156200015657600081556001016200015b565b6000602082840312156200018457600080fd5b81516001600160a01b03811681146200019c57600080fd5b9392505050565b600181811c90821680620001b857607f821691505b60208210811415620001da57634e487b7160e01b600052602260045260246000fd5b50919050565b6119e880620001f06000396000f3fe608060405234801561001057600080fd5b50600436106101215760003560e01c80636352211e116100ad578063b88d4fde11610071578063b88d4fde1461026a578063c87b56dd1461027d578063e0df5b6f14610290578063e985e9c5146102a3578063ea7272b0146102df57600080fd5b80636352211e1461021257806370a08231146102255780638bbf58b31461024657806395d89b411461024f578063a22cb4651461025757600080fd5b806320c69e56116100f457806320c69e56146101a357806323b872dd146101c657806340d097c3146101d957806342842e0e146101ec57806342966c68146101ff57600080fd5b806301ffc9a71461012657806306fdde031461014e578063081812fc14610163578063095ea7b31461018e575b600080fd5b6101396101343660046114a3565b6102f2565b60405190151581526020015b60405180910390f35b610156610344565b6040516101459190611514565b610176610171366004611527565b6103d6565b6040516001600160a01b039091168152602001610145565b6101a161019c36600461155c565b610470565b005b6101396101b1366004611527565b60096020526000908152604090205460ff1681565b6101a16101d4366004611586565b610586565b6101a16101e73660046115c2565b6105b8565b6101a16101fa366004611586565b610728565b6101a161020d366004611527565b610743565b610176610220366004611527565b6107bd565b6102386102333660046115c2565b610834565b604051908152602001610145565b61023860065481565b6101566108bb565b6101a16102653660046115eb565b6108ca565b6101a16102783660046116ae565b61098f565b61015661028b366004611527565b6109c7565b6101a161029e36600461172a565b610ad2565b6101396102b1366004611773565b6001600160a01b03918216600090815260056020908152604080832093909416825291909152205460ff1690565b6101a16102ed36600461172a565b610bfb565b60006001600160e01b031982166380ac58cd60e01b148061032357506001600160e01b03198216635b5e139f60e01b145b8061033e57506301ffc9a760e01b6001600160e01b03198316145b92915050565b606060008054610353906117a6565b80601f016020809104026020016040519081016040528092919081815260200182805461037f906117a6565b80156103cc5780601f106103a1576101008083540402835291602001916103cc565b820191906000526020600020905b8154815290600101906020018083116103af57829003601f168201915b5050505050905090565b6000818152600260205260408120546001600160a01b03166104545760405162461bcd60e51b815260206004820152602c60248201527f4552433732313a20617070726f76656420717565727920666f72206e6f6e657860448201526b34b9ba32b73a103a37b5b2b760a11b60648201526084015b60405180910390fd5b506000908152600460205260409020546001600160a01b031690565b600061047b826107bd565b9050806001600160a01b0316836001600160a01b031614156104e95760405162461bcd60e51b815260206004820152602160248201527f4552433732313a20617070726f76616c20746f2063757272656e74206f776e656044820152603960f91b606482015260840161044b565b336001600160a01b0382161480610505575061050581336102b1565b6105775760405162461bcd60e51b815260206004820152603860248201527f4552433732313a20617070726f76652063616c6c6572206973206e6f74206f7760448201527f6e6572206e6f7220617070726f76656420666f7220616c6c0000000000000000606482015260840161044b565b6105818383610d24565b505050565b610591335b82610d92565b6105ad5760405162461bcd60e51b815260040161044b906117e1565b610581838383610e89565b60075460408051632f533cb760e01b815290516001600160a01b03909216916391d14854918391632f533cb791600480820192602092909190829003018186803b15801561060557600080fd5b505afa158015610619573d6000803e3d6000fd5b505050506040513d601f19601f8201168201806040525081019061063d9190611832565b6040516001600160e01b031960e084901b168152600481019190915233602482015260440160206040518083038186803b15801561067a57600080fd5b505afa15801561068e573d6000803e3d6000fd5b505050506040513d601f19601f820116820180604052508101906106b2919061184b565b6106ce5760405162461bcd60e51b815260040161044b90611868565b600680549060019060006106e283856118b5565b9091555050600b546106f2611029565b6106fc91906118cd565b61071a576000818152600960205260409020805460ff191660011790555b610724828261108a565b5050565b6105818383836040518060200160405280600081525061098f565b61074c3361058b565b6107b15760405162461bcd60e51b815260206004820152603060248201527f4552433732314275726e61626c653a2063616c6c6572206973206e6f74206f7760448201526f1b995c881b9bdc88185c1c1c9bdd995960821b606482015260840161044b565b6107ba816110a4565b50565b6000818152600260205260408120546001600160a01b03168061033e5760405162461bcd60e51b815260206004820152602960248201527f4552433732313a206f776e657220717565727920666f72206e6f6e657869737460448201526832b73a103a37b5b2b760b91b606482015260840161044b565b60006001600160a01b03821661089f5760405162461bcd60e51b815260206004820152602a60248201527f4552433732313a2062616c616e636520717565727920666f7220746865207a65604482015269726f206164647265737360b01b606482015260840161044b565b506001600160a01b031660009081526003602052604090205490565b606060018054610353906117a6565b6001600160a01b0382163314156109235760405162461bcd60e51b815260206004820152601960248201527f4552433732313a20617070726f766520746f2063616c6c657200000000000000604482015260640161044b565b3360008181526005602090815260408083206001600160a01b03871680855290835292819020805460ff191686151590811790915590519081529192917f17307eab39ab6107e8899845ad3d59bd9653f200f220920489ca2b5937696c31910160405180910390a35050565b6109993383610d92565b6109b55760405162461bcd60e51b815260040161044b906117e1565b6109c18484848461113f565b50505050565b6000818152600260205260409020546060906001600160a01b0316610a225760405162461bcd60e51b81526020600482015260116024820152702737b732bc34b9ba32b73a103a37b5b2b760791b604482015260640161044b565b60008281526009602052604090205460ff16610a3f576008610a42565b600a5b8054610a4d906117a6565b80601f0160208091040260200160405190810160405280929190818152602001828054610a79906117a6565b8015610ac65780601f10610a9b57610100808354040283529160200191610ac6565b820191906000526020600020905b815481529060010190602001808311610aa957829003601f168201915b50505050509050919050565b60075460408051632f533cb760e01b815290516001600160a01b03909216916391d14854918391632f533cb791600480820192602092909190829003018186803b158015610b1f57600080fd5b505afa158015610b33573d6000803e3d6000fd5b505050506040513d601f19601f82011682018060405250810190610b579190611832565b6040516001600160e01b031960e084901b168152600481019190915233602482015260440160206040518083038186803b158015610b9457600080fd5b505afa158015610ba8573d6000803e3d6000fd5b505050506040513d601f19601f82011682018060405250810190610bcc919061184b565b610be85760405162461bcd60e51b815260040161044b90611868565b80516107249060089060208401906113f4565b60075460408051632f533cb760e01b815290516001600160a01b03909216916391d14854918391632f533cb791600480820192602092909190829003018186803b158015610c4857600080fd5b505afa158015610c5c573d6000803e3d6000fd5b505050506040513d601f19601f82011682018060405250810190610c809190611832565b6040516001600160e01b031960e084901b168152600481019190915233602482015260440160206040518083038186803b158015610cbd57600080fd5b505afa158015610cd1573d6000803e3d6000fd5b505050506040513d601f19601f82011682018060405250810190610cf5919061184b565b610d115760405162461bcd60e51b815260040161044b90611868565b805161072490600a9060208401906113f4565b600081815260046020526040902080546001600160a01b0319166001600160a01b0384169081179091558190610d59826107bd565b6001600160a01b03167f8c5be1e5ebec7d5bd14f71427d1e84f3dd0314c0f7b2291e5b200ac8c7c3b92560405160405180910390a45050565b6000818152600260205260408120546001600160a01b0316610e0b5760405162461bcd60e51b815260206004820152602c60248201527f4552433732313a206f70657261746f7220717565727920666f72206e6f6e657860448201526b34b9ba32b73a103a37b5b2b760a11b606482015260840161044b565b6000610e16836107bd565b9050806001600160a01b0316846001600160a01b03161480610e515750836001600160a01b0316610e46846103d6565b6001600160a01b0316145b80610e8157506001600160a01b0380821660009081526005602090815260408083209388168352929052205460ff165b949350505050565b826001600160a01b0316610e9c826107bd565b6001600160a01b031614610f045760405162461bcd60e51b815260206004820152602960248201527f4552433732313a207472616e73666572206f6620746f6b656e2074686174206960448201526839903737ba1037bbb760b91b606482015260840161044b565b6001600160a01b038216610f665760405162461bcd60e51b8152602060048201526024808201527f4552433732313a207472616e7366657220746f20746865207a65726f206164646044820152637265737360e01b606482015260840161044b565b610f71600082610d24565b6001600160a01b0383166000908152600360205260408120805460019290610f9a9084906118ef565b90915550506001600160a01b0382166000908152600360205260408120805460019290610fc89084906118b5565b909155505060008181526002602052604080822080546001600160a01b0319166001600160a01b0386811691821790925591518493918716917fddf252ad1be2c89b69c2b068fc378daa952ba7f163c4a11628f55a4df523b3ef91a4505050565b600044423360065460405160200161106c9493929190938452602084019290925260601b6bffffffffffffffffffffffff19166040830152605482015260740190565b6040516020818303038152906040528051906020012060001c905090565b610724828260405180602001604052806000815250611172565b60006110af826107bd565b90506110bc600083610d24565b6001600160a01b03811660009081526003602052604081208054600192906110e59084906118ef565b909155505060008281526002602052604080822080546001600160a01b0319169055518391906001600160a01b038416907fddf252ad1be2c89b69c2b068fc378daa952ba7f163c4a11628f55a4df523b3ef908390a45050565b61114a848484610e89565b611156848484846111a5565b6109c15760405162461bcd60e51b815260040161044b90611906565b61117c83836112b2565b61118960008484846111a5565b6105815760405162461bcd60e51b815260040161044b90611906565b60006001600160a01b0384163b156112a757604051630a85bd0160e11b81526001600160a01b0385169063150b7a02906111e9903390899088908890600401611958565b602060405180830381600087803b15801561120357600080fd5b505af1925050508015611233575060408051601f3d908101601f1916820190925261123091810190611995565b60015b61128d573d808015611261576040519150601f19603f3d011682016040523d82523d6000602084013e611266565b606091505b5080516112855760405162461bcd60e51b815260040161044b90611906565b805181602001fd5b6001600160e01b031916630a85bd0160e11b149050610e81565b506001949350505050565b6001600160a01b0382166113085760405162461bcd60e51b815260206004820181905260248201527f4552433732313a206d696e7420746f20746865207a65726f2061646472657373604482015260640161044b565b6000818152600260205260409020546001600160a01b03161561136d5760405162461bcd60e51b815260206004820152601c60248201527f4552433732313a20746f6b656e20616c7265616479206d696e74656400000000604482015260640161044b565b6001600160a01b03821660009081526003602052604081208054600192906113969084906118b5565b909155505060008181526002602052604080822080546001600160a01b0319166001600160a01b03861690811790915590518392907fddf252ad1be2c89b69c2b068fc378daa952ba7f163c4a11628f55a4df523b3ef908290a45050565b828054611400906117a6565b90600052602060002090601f0160209004810192826114225760008555611468565b82601f1061143b57805160ff1916838001178555611468565b82800160010185558215611468579182015b8281111561146857825182559160200191906001019061144d565b50611474929150611478565b5090565b5b808211156114745760008155600101611479565b6001600160e01b0319811681146107ba57600080fd5b6000602082840312156114b557600080fd5b81356114c08161148d565b9392505050565b6000815180845260005b818110156114ed576020818501810151868301820152016114d1565b818111156114ff576000602083870101525b50601f01601f19169290920160200192915050565b6020815260006114c060208301846114c7565b60006020828403121561153957600080fd5b5035919050565b80356001600160a01b038116811461155757600080fd5b919050565b6000806040838503121561156f57600080fd5b61157883611540565b946020939093013593505050565b60008060006060848603121561159b57600080fd5b6115a484611540565b92506115b260208501611540565b9150604084013590509250925092565b6000602082840312156115d457600080fd5b6114c082611540565b80151581146107ba57600080fd5b600080604083850312156115fe57600080fd5b61160783611540565b91506020830135611617816115dd565b809150509250929050565b634e487b7160e01b600052604160045260246000fd5b600067ffffffffffffffff8084111561165357611653611622565b604051601f8501601f19908116603f0116810190828211818310171561167b5761167b611622565b8160405280935085815286868601111561169457600080fd5b858560208301376000602087830101525050509392505050565b600080600080608085870312156116c457600080fd5b6116cd85611540565b93506116db60208601611540565b925060408501359150606085013567ffffffffffffffff8111156116fe57600080fd5b8501601f8101871361170f57600080fd5b61171e87823560208401611638565b91505092959194509250565b60006020828403121561173c57600080fd5b813567ffffffffffffffff81111561175357600080fd5b8201601f8101841361176457600080fd5b610e8184823560208401611638565b6000806040838503121561178657600080fd5b61178f83611540565b915061179d60208401611540565b90509250929050565b600181811c908216806117ba57607f821691505b602082108114156117db57634e487b7160e01b600052602260045260246000fd5b50919050565b60208082526031908201527f4552433732313a207472616e736665722063616c6c6572206973206e6f74206f6040820152701ddb995c881b9bdc88185c1c1c9bdd9959607a1b606082015260800190565b60006020828403121561184457600080fd5b5051919050565b60006020828403121561185d57600080fd5b81516114c0816115dd565b6020808252601c908201527f476f7665726e616e636520746f6b656e3a206e6f74206d696e74657200000000604082015260600190565b634e487b7160e01b600052601160045260246000fd5b600082198211156118c8576118c861189f565b500190565b6000826118ea57634e487b7160e01b600052601260045260246000fd5b500690565b6000828210156119015761190161189f565b500390565b60208082526032908201527f4552433732313a207472616e7366657220746f206e6f6e20455243373231526560408201527131b2b4bb32b91034b6b83632b6b2b73a32b960711b606082015260800190565b6001600160a01b038581168252841660208201526040810183905260806060820181905260009061198b908301846114c7565b9695505050505050565b6000602082840312156119a757600080fd5b81516114c08161148d56fea26469706673582212208ff0f340088199629a1cfbc17499548e7df55ed2e1b53e946f27021db5e30b2b64736f6c63430008090033",
  "devdoc": {
    "kind": "dev",
    "methods": {
      "approve(address,uint256)": {
        "details": "See {IERC721-approve}."
      },
      "balanceOf(address)": {
        "details": "See {IERC721-balanceOf}."
      },
      "burn(uint256)": {
        "details": "Burns `tokenId`. See {ERC721-_burn}. Requirements: - The caller must own `tokenId` or be an approved operator."
      },
      "getApproved(uint256)": {
        "details": "See {IERC721-getApproved}."
      },
      "isApprovedForAll(address,address)": {
        "details": "See {IERC721-isApprovedForAll}."
      },
      "name()": {
        "details": "See {IERC721Metadata-name}."
      },
      "ownerOf(uint256)": {
        "details": "See {IERC721-ownerOf}."
      },
      "safeTransferFrom(address,address,uint256)": {
        "details": "See {IERC721-safeTransferFrom}."
      },
      "safeTransferFrom(address,address,uint256,bytes)": {
        "details": "See {IERC721-safeTransferFrom}."
      },
      "setApprovalForAll(address,bool)": {
        "details": "See {IERC721-setApprovalForAll}."
      },
      "supportsInterface(bytes4)": {
        "details": "See {IERC165-supportsInterface}."
      },
      "symbol()": {
        "details": "See {IERC721Metadata-symbol}."
      },
      "tokenURI(uint256)": {
        "details": "See {IERC721Metadata-tokenURI}."
      },
      "transferFrom(address,address,uint256)": {
        "details": "See {IERC721-transferFrom}."
      }
    },
    "version": 1
  },
  "userdoc": {
    "kind": "user",
    "methods": {},
    "version": 1
  },
  "storageLayout": {
    "storage": [
      {
        "astId": 405,
        "contract": "contracts/NftPass.sol:NftPass",
        "label": "_name",
        "offset": 0,
        "slot": "0",
        "type": "t_string_storage"
      },
      {
        "astId": 407,
        "contract": "contracts/NftPass.sol:NftPass",
        "label": "_symbol",
        "offset": 0,
        "slot": "1",
        "type": "t_string_storage"
      },
      {
        "astId": 411,
        "contract": "contracts/NftPass.sol:NftPass",
        "label": "_owners",
        "offset": 0,
        "slot": "2",
        "type": "t_mapping(t_uint256,t_address)"
      },
      {
        "astId": 415,
        "contract": "contracts/NftPass.sol:NftPass",
        "label": "_balances",
        "offset": 0,
        "slot": "3",
        "type": "t_mapping(t_address,t_uint256)"
      },
      {
        "astId": 419,
        "contract": "contracts/NftPass.sol:NftPass",
        "label": "_tokenApprovals",
        "offset": 0,
        "slot": "4",
        "type": "t_mapping(t_uint256,t_address)"
      },
      {
        "astId": 425,
        "contract": "contracts/NftPass.sol:NftPass",
        "label": "_operatorApprovals",
        "offset": 0,
        "slot": "5",
        "type": "t_mapping(t_address,t_mapping(t_address,t_bool))"
      },
      {
        "astId": 1982,
        "contract": "contracts/NftPass.sol:NftPass",
        "label": "tokenIdNext",
        "offset": 0,
        "slot": "6",
        "type": "t_uint256"
      },
      {
        "astId": 1984,
        "contract": "contracts/NftPass.sol:NftPass",
        "label": "_manager",
        "offset": 0,
        "slot": "7",
        "type": "t_address"
      },
      {
        "astId": 1986,
        "contract": "contracts/NftPass.sol:NftPass",
        "label": "_tokenURI",
        "offset": 0,
        "slot": "8",
        "type": "t_string_storage"
      },
      {
        "astId": 1990,
        "contract": "contracts/NftPass.sol:NftPass",
        "label": "gold",
        "offset": 0,
        "slot": "9",
        "type": "t_mapping(t_uint256,t_bool)"
      },
      {
        "astId": 1992,
        "contract": "contracts/NftPass.sol:NftPass",
        "label": "_tokenGoldURI",
        "offset": 0,
        "slot": "10",
        "type": "t_string_storage"
      },
      {
        "astId": 1995,
        "contract": "contracts/NftPass.sol:NftPass",
        "label": "randomfreq",
        "offset": 0,
        "slot": "11",
        "type": "t_uint256"
      }
    ],
    "types": {
      "t_address": {
        "encoding": "inplace",
        "label": "address",
        "numberOfBytes": "20"
      },
      "t_bool": {
        "encoding": "inplace",
        "label": "bool",
        "numberOfBytes": "1"
      },
      "t_mapping(t_address,t_bool)": {
        "encoding": "mapping",
        "key": "t_address",
        "label": "mapping(address => bool)",
        "numberOfBytes": "32",
        "value": "t_bool"
      },
      "t_mapping(t_address,t_mapping(t_address,t_bool))": {
        "encoding": "mapping",
        "key": "t_address",
        "label": "mapping(address => mapping(address => bool))",
        "numberOfBytes": "32",
        "value": "t_mapping(t_address,t_bool)"
      },
      "t_mapping(t_address,t_uint256)": {
        "encoding": "mapping",
        "key": "t_address",
        "label": "mapping(address => uint256)",
        "numberOfBytes": "32",
        "value": "t_uint256"
      },
      "t_mapping(t_uint256,t_address)": {
        "encoding": "mapping",
        "key": "t_uint256",
        "label": "mapping(uint256 => address)",
        "numberOfBytes": "32",
        "value": "t_address"
      },
      "t_mapping(t_uint256,t_bool)": {
        "encoding": "mapping",
        "key": "t_uint256",
        "label": "mapping(uint256 => bool)",
        "numberOfBytes": "32",
        "value": "t_bool"
      },
      "t_string_storage": {
        "encoding": "bytes",
        "label": "string",
        "numberOfBytes": "32"
      },
      "t_uint256": {
        "encoding": "inplace",
        "label": "uint256",
        "numberOfBytes": "32"
      }
    }
  }
}