{
  "address": "0x0C8ea6F5B30dE9E03a5e516E7165ee49BE697275",
  "abi": [
    {
      "inputs": [
        {
          "internalType": "string[]",
          "name": "tokenURIs",
          "type": "string[]"
        }
      ],
      "stateMutability": "nonpayable",
      "type": "constructor"
    },
    {
      "anonymous": false,
      "inputs": [
        {
          "indexed": true,
          "internalType": "address",
          "name": "owner",
          "type": "address"
        },
        {
          "indexed": true,
          "internalType": "address",
          "name": "approved",
          "type": "address"
        },
        {
          "indexed": true,
          "internalType": "uint256",
          "name": "tokenId",
          "type": "uint256"
        }
      ],
      "name": "Approval",
      "type": "event"
    },
    {
      "anonymous": false,
      "inputs": [
        {
          "indexed": true,
          "internalType": "address",
          "name": "owner",
          "type": "address"
        },
        {
          "indexed": true,
          "internalType": "address",
          "name": "operator",
          "type": "address"
        },
        {
          "indexed": false,
          "internalType": "bool",
          "name": "approved",
          "type": "bool"
        }
      ],
      "name": "ApprovalForAll",
      "type": "event"
    },
    {
      "anonymous": false,
      "inputs": [
        {
          "indexed": true,
          "internalType": "address",
          "name": "previousOwner",
          "type": "address"
        },
        {
          "indexed": true,
          "internalType": "address",
          "name": "newOwner",
          "type": "address"
        }
      ],
      "name": "OwnershipTransferred",
      "type": "event"
    },
    {
      "anonymous": false,
      "inputs": [
        {
          "indexed": false,
          "internalType": "address",
          "name": "receiver",
          "type": "address"
        },
        {
          "indexed": false,
          "internalType": "uint96",
          "name": "feeNumerator",
          "type": "uint96"
        }
      ],
      "name": "SetDefaultRoyalty",
      "type": "event"
    },
    {
      "anonymous": false,
      "inputs": [
        {
          "indexed": false,
          "internalType": "address",
          "name": "minter",
          "type": "address"
        }
      ],
      "name": "SetMinter",
      "type": "event"
    },
    {
      "anonymous": false,
      "inputs": [
        {
          "indexed": false,
          "internalType": "uint256",
          "name": "tokenID",
          "type": "uint256"
        },
        {
          "indexed": false,
          "internalType": "address",
          "name": "receiver",
          "type": "address"
        },
        {
          "indexed": false,
          "internalType": "uint96",
          "name": "feeNumerator",
          "type": "uint96"
        }
      ],
      "name": "SetTokenRoyalty",
      "type": "event"
    },
    {
      "anonymous": false,
      "inputs": [
        {
          "indexed": false,
          "internalType": "uint256",
          "name": "ntype",
          "type": "uint256"
        },
        {
          "indexed": false,
          "internalType": "string",
          "name": "contractURI",
          "type": "string"
        }
      ],
      "name": "SetTokenURI",
      "type": "event"
    },
    {
      "anonymous": false,
      "inputs": [
        {
          "indexed": true,
          "internalType": "address",
          "name": "from",
          "type": "address"
        },
        {
          "indexed": true,
          "internalType": "address",
          "name": "to",
          "type": "address"
        },
        {
          "indexed": true,
          "internalType": "uint256",
          "name": "tokenId",
          "type": "uint256"
        }
      ],
      "name": "Transfer",
      "type": "event"
    },
    {
      "inputs": [
        {
          "internalType": "address",
          "name": "to",
          "type": "address"
        },
        {
          "internalType": "uint256",
          "name": "tokenId",
          "type": "uint256"
        }
      ],
      "name": "approve",
      "outputs": [],
      "stateMutability": "nonpayable",
      "type": "function"
    },
    {
      "inputs": [
        {
          "internalType": "address",
          "name": "owner",
          "type": "address"
        }
      ],
      "name": "balanceOf",
      "outputs": [
        {
          "internalType": "uint256",
          "name": "",
          "type": "uint256"
        }
      ],
      "stateMutability": "view",
      "type": "function"
    },
    {
      "inputs": [
        {
          "internalType": "address",
          "name": "to",
          "type": "address"
        },
        {
          "internalType": "uint256",
          "name": "count",
          "type": "uint256"
        }
      ],
      "name": "batchSafeMint",
      "outputs": [],
      "stateMutability": "nonpayable",
      "type": "function"
    },
    {
      "inputs": [
        {
          "internalType": "uint256",
          "name": "tokenId",
          "type": "uint256"
        }
      ],
      "name": "burn",
      "outputs": [],
      "stateMutability": "nonpayable",
      "type": "function"
    },
    {
      "inputs": [],
      "name": "deleteDefaultRoyalty",
      "outputs": [],
      "stateMutability": "nonpayable",
      "type": "function"
    },
    {
      "inputs": [
        {
          "internalType": "uint256",
          "name": "tokenId",
          "type": "uint256"
        }
      ],
      "name": "getApproved",
      "outputs": [
        {
          "internalType": "address",
          "name": "",
          "type": "address"
        }
      ],
      "stateMutability": "view",
      "type": "function"
    },
    {
      "inputs": [
        {
          "internalType": "uint256",
          "name": "",
          "type": "uint256"
        }
      ],
      "name": "gold",
      "outputs": [
        {
          "internalType": "bool",
          "name": "",
          "type": "bool"
        }
      ],
      "stateMutability": "view",
      "type": "function"
    },
    {
      "inputs": [
        {
          "internalType": "address",
          "name": "owner",
          "type": "address"
        },
        {
          "internalType": "address",
          "name": "operator",
          "type": "address"
        }
      ],
      "name": "isApprovedForAll",
      "outputs": [
        {
          "internalType": "bool",
          "name": "",
          "type": "bool"
        }
      ],
      "stateMutability": "view",
      "type": "function"
    },
    {
      "inputs": [],
      "name": "minter",
      "outputs": [
        {
          "internalType": "address",
          "name": "",
          "type": "address"
        }
      ],
      "stateMutability": "view",
      "type": "function"
    },
    {
      "inputs": [],
      "name": "name",
      "outputs": [
        {
          "internalType": "string",
          "name": "",
          "type": "string"
        }
      ],
      "stateMutability": "view",
      "type": "function"
    },
    {
      "inputs": [],
      "name": "owner",
      "outputs": [
        {
          "internalType": "address",
          "name": "",
          "type": "address"
        }
      ],
      "stateMutability": "view",
      "type": "function"
    },
    {
      "inputs": [
        {
          "internalType": "uint256",
          "name": "tokenId",
          "type": "uint256"
        }
      ],
      "name": "ownerOf",
      "outputs": [
        {
          "internalType": "address",
          "name": "",
          "type": "address"
        }
      ],
      "stateMutability": "view",
      "type": "function"
    },
    {
      "inputs": [],
      "name": "renounceOwnership",
      "outputs": [],
      "stateMutability": "nonpayable",
      "type": "function"
    },
    {
      "inputs": [
        {
          "internalType": "uint256",
          "name": "tokenID",
          "type": "uint256"
        }
      ],
      "name": "resetTokenRoyalty",
      "outputs": [],
      "stateMutability": "nonpayable",
      "type": "function"
    },
    {
      "inputs": [
        {
          "internalType": "uint256",
          "name": "_tokenId",
          "type": "uint256"
        },
        {
          "internalType": "uint256",
          "name": "_salePrice",
          "type": "uint256"
        }
      ],
      "name": "royaltyInfo",
      "outputs": [
        {
          "internalType": "address",
          "name": "",
          "type": "address"
        },
        {
          "internalType": "uint256",
          "name": "",
          "type": "uint256"
        }
      ],
      "stateMutability": "view",
      "type": "function"
    },
    {
      "inputs": [
        {
          "internalType": "address",
          "name": "to",
          "type": "address"
        }
      ],
      "name": "safeMint",
      "outputs": [],
      "stateMutability": "nonpayable",
      "type": "function"
    },
    {
      "inputs": [
        {
          "internalType": "address",
          "name": "from",
          "type": "address"
        },
        {
          "internalType": "address",
          "name": "to",
          "type": "address"
        },
        {
          "internalType": "uint256",
          "name": "tokenId",
          "type": "uint256"
        }
      ],
      "name": "safeTransferFrom",
      "outputs": [],
      "stateMutability": "nonpayable",
      "type": "function"
    },
    {
      "inputs": [
        {
          "internalType": "address",
          "name": "from",
          "type": "address"
        },
        {
          "internalType": "address",
          "name": "to",
          "type": "address"
        },
        {
          "internalType": "uint256",
          "name": "tokenId",
          "type": "uint256"
        },
        {
          "internalType": "bytes",
          "name": "_data",
          "type": "bytes"
        }
      ],
      "name": "safeTransferFrom",
      "outputs": [],
      "stateMutability": "nonpayable",
      "type": "function"
    },
    {
      "inputs": [
        {
          "internalType": "address",
          "name": "operator",
          "type": "address"
        },
        {
          "internalType": "bool",
          "name": "approved",
          "type": "bool"
        }
      ],
      "name": "setApprovalForAll",
      "outputs": [],
      "stateMutability": "nonpayable",
      "type": "function"
    },
    {
      "inputs": [
        {
          "internalType": "address",
          "name": "receiver",
          "type": "address"
        },
        {
          "internalType": "uint96",
          "name": "feeNumerator",
          "type": "uint96"
        }
      ],
      "name": "setDefaultRoyalty",
      "outputs": [],
      "stateMutability": "nonpayable",
      "type": "function"
    },
    {
      "inputs": [
        {
          "internalType": "address",
          "name": "minter_",
          "type": "address"
        }
      ],
      "name": "setMinter",
      "outputs": [],
      "stateMutability": "nonpayable",
      "type": "function"
    },
    {
      "inputs": [
        {
          "internalType": "uint256",
          "name": "tokenID",
          "type": "uint256"
        },
        {
          "internalType": "string",
          "name": "newTokenMutableURI",
          "type": "string"
        }
      ],
      "name": "setTokenMutableURI",
      "outputs": [],
      "stateMutability": "nonpayable",
      "type": "function"
    },
    {
      "inputs": [
        {
          "internalType": "uint256",
          "name": "tokenID",
          "type": "uint256"
        },
        {
          "internalType": "address",
          "name": "receiver",
          "type": "address"
        },
        {
          "internalType": "uint96",
          "name": "feeNumerator",
          "type": "uint96"
        }
      ],
      "name": "setTokenRoyalty",
      "outputs": [],
      "stateMutability": "nonpayable",
      "type": "function"
    },
    {
      "inputs": [
        {
          "internalType": "uint256",
          "name": "ntype",
          "type": "uint256"
        },
        {
          "internalType": "string",
          "name": "newTokenURI",
          "type": "string"
        }
      ],
      "name": "setTokenURI",
      "outputs": [],
      "stateMutability": "nonpayable",
      "type": "function"
    },
    {
      "inputs": [
        {
          "internalType": "bytes4",
          "name": "interfaceId",
          "type": "bytes4"
        }
      ],
      "name": "supportsInterface",
      "outputs": [
        {
          "internalType": "bool",
          "name": "",
          "type": "bool"
        }
      ],
      "stateMutability": "view",
      "type": "function"
    },
    {
      "inputs": [],
      "name": "symbol",
      "outputs": [
        {
          "internalType": "string",
          "name": "",
          "type": "string"
        }
      ],
      "stateMutability": "view",
      "type": "function"
    },
    {
      "inputs": [
        {
          "internalType": "uint256",
          "name": "index",
          "type": "uint256"
        }
      ],
      "name": "tokenByIndex",
      "outputs": [
        {
          "internalType": "uint256",
          "name": "",
          "type": "uint256"
        }
      ],
      "stateMutability": "view",
      "type": "function"
    },
    {
      "inputs": [],
      "name": "tokenIdNext",
      "outputs": [
        {
          "internalType": "uint256",
          "name": "",
          "type": "uint256"
        }
      ],
      "stateMutability": "view",
      "type": "function"
    },
    {
      "inputs": [
        {
          "internalType": "address",
          "name": "owner",
          "type": "address"
        },
        {
          "internalType": "uint256",
          "name": "index",
          "type": "uint256"
        }
      ],
      "name": "tokenOfOwnerByIndex",
      "outputs": [
        {
          "internalType": "uint256",
          "name": "",
          "type": "uint256"
        }
      ],
      "stateMutability": "view",
      "type": "function"
    },
    {
      "inputs": [
        {
          "internalType": "uint256",
          "name": "tokenID",
          "type": "uint256"
        }
      ],
      "name": "tokenURI",
      "outputs": [
        {
          "internalType": "string",
          "name": "uri",
          "type": "string"
        }
      ],
      "stateMutability": "view",
      "type": "function"
    },
    {
      "inputs": [],
      "name": "totalSupply",
      "outputs": [
        {
          "internalType": "uint256",
          "name": "",
          "type": "uint256"
        }
      ],
      "stateMutability": "view",
      "type": "function"
    },
    {
      "inputs": [
        {
          "internalType": "address",
          "name": "from",
          "type": "address"
        },
        {
          "internalType": "address",
          "name": "to",
          "type": "address"
        },
        {
          "internalType": "uint256",
          "name": "tokenId",
          "type": "uint256"
        }
      ],
      "name": "transferFrom",
      "outputs": [],
      "stateMutability": "nonpayable",
      "type": "function"
    },
    {
      "inputs": [
        {
          "internalType": "address",
          "name": "newOwner",
          "type": "address"
        }
      ],
      "name": "transferOwnership",
      "outputs": [],
      "stateMutability": "nonpayable",
      "type": "function"
    }
  ],
  "transactionHash": "0x16a5195efdd1eaafc82a558c65307d9ee481509cc91adba855eb9a50da736a32",
  "args": [
    [
      "https://ipfs.io/ipfs/bafybeif5lav22vn6uqkayufgt56dcidsbnq5fl7l7nxywmgfz6o267e3u4",
      "https://ipfs.io/ipfs/bafybeiboyh6joavnajqq2u2wod7kfxekvri7iulzrijwekj6vd4gs4cavi",
      "https://ipfs.io/ipfs/bafybeidri4nfr6h44acesfzio2xbujsciaxxaaw55qaf3vuizmwehy6icu"
    ]
  ],
  "numDeployments": 2,
  "solcInputHash": "7ac2f7d8a205e76c8ed303a5644ccfe5",
  "bytecode": "0x60806040526001600d553480156200001657600080fd5b5060405162002bd638038062002bd683398101604081905262000039916200044e565b604080518082018252600f81526e54686520556269717569537469636b60881b6020808301918252835180850190945260038452624b455960e81b9084015281519192916200008b916000916200032c565b508051620000a19060019060208401906200032c565b505050620000be620000b86200013860201b60201c565b6200013c565b620000c9336200018e565b620000f9600082600081518110620000e557620000e562000578565b60200260200101516200024260201b60201c565b62000115600182600181518110620000e557620000e562000578565b62000131600282600281518110620000e557620000e562000578565b5062000607565b3390565b600c80546001600160a01b038381166001600160a01b0319831681179093556040519116919082907f8be0079c531659141344cd1fd0a4f28419497f9722a3daafe3b4186f6b6457e090600090a35050565b600c546001600160a01b03163314620001ee5760405162461bcd60e51b815260206004820181905260248201527f4f776e61626c653a2063616c6c6572206973206e6f7420746865206f776e657260448201526064015b60405180910390fd5b600e80546001600160a01b0319166001600160a01b0383169081179091556040519081527fcec52196e972044edde8689a1b608e459c5946b7f3e5c8cd3d6d8e126d422e1c9060200160405180910390a150565b600e546001600160a01b031633146200028b5760405162461bcd60e51b815260206004820152600a6024820152692737ba1036b4b73a32b960b11b6044820152606401620001e5565b81620002ad578051620002a690600f9060208401906200032c565b50620002ed565b6001821415620002cc578051620002a69060109060208401906200032c565b6002821415620002ed578051620002eb9060129060208401906200032c565b505b7fd2d827dddfc9c9a02afc5fc68d3251684b36e213a7999ebd90a861f25df4077e8282604051620003209291906200058e565b60405180910390a15050565b8280546200033a90620005ca565b90600052602060002090601f0160209004810192826200035e5760008555620003a9565b82601f106200037957805160ff1916838001178555620003a9565b82800160010185558215620003a9579182015b82811115620003a95782518255916020019190600101906200038c565b50620003b7929150620003bb565b5090565b5b80821115620003b75760008155600101620003bc565b634e487b7160e01b600052604160045260246000fd5b604051601f8201601f191681016001600160401b0381118282101715620004135762000413620003d2565b604052919050565b60005b83811015620004385781810151838201526020016200041e565b8381111562000448576000848401525b50505050565b600060208083850312156200046257600080fd5b82516001600160401b03808211156200047a57600080fd5b8185019150601f86818401126200049057600080fd5b825182811115620004a557620004a5620003d2565b8060051b620004b6868201620003e8565b918252848101860191868101908a841115620004d157600080fd5b87870192505b838310156200056a57825186811115620004f15760008081fd5b8701603f81018c13620005045760008081fd5b888101516040888211156200051d576200051d620003d2565b62000530828901601f19168c01620003e8565b8281528e82848601011115620005465760008081fd5b62000557838d83018487016200041b565b85525050509187019190870190620004d7565b9a9950505050505050505050565b634e487b7160e01b600052603260045260246000fd5b8281526040602082015260008251806040840152620005b58160608501602087016200041b565b601f01601f1916919091016060019392505050565b600181811c90821680620005df57607f821691505b602082108114156200060157634e487b7160e01b600052602260045260246000fd5b50919050565b6125bf80620006176000396000f3fe608060405234801561001057600080fd5b50600436106101fb5760003560e01c80634f6ccce71161011a5780638da5cb5b116100ad578063b88d4fde1161007c578063b88d4fde14610446578063c87b56dd14610459578063e985e9c51461046c578063f2fde38b146104a8578063fca3b5aa146104bb57600080fd5b80638da5cb5b1461041257806395d89b4114610423578063a22cb4651461042b578063aa1b103f1461043e57600080fd5b806370a08231116100e957806370a08231146103db578063715018a6146103ee5780638a616bc0146103f65780638bbf58b31461040957600080fd5b80634f6ccce71461038f5780635832bcfe146103a25780635944c753146103b55780636352211e146103c857600080fd5b806320c69e561161019257806333fc657c1161016157806333fc657c1461034357806340d097c31461035657806342842e0e1461036957806342966c681461037c57600080fd5b806320c69e56146102c857806323b872dd146102eb5780632a55205a146102fe5780632f745c591461033057600080fd5b8063081812fc116101ce578063081812fc1461027d578063095ea7b314610290578063162094c4146102a357806318160ddd146102b657600080fd5b806301ffc9a71461020057806304634d8d1461022857806306fdde031461023d5780630754617214610252575b600080fd5b61021361020e366004611f06565b6104ce565b60405190151581526020015b60405180910390f35b61023b610236366004611f58565b6104df565b005b61024561056b565b60405161021f9190611fd8565b600e54610265906001600160a01b031681565b6040516001600160a01b03909116815260200161021f565b61026561028b366004611feb565b6105fd565b61023b61029e366004612004565b610692565b61023b6102b13660046120ba565b6107a8565b6008545b60405190815260200161021f565b6102136102d6366004611feb565b60116020526000908152604090205460ff1681565b61023b6102f9366004612115565b61085b565b61031161030c366004612151565b61088d565b604080516001600160a01b03909316835260208301919091520161021f565b6102ba61033e366004612004565b610939565b61023b6103513660046120ba565b6109cf565b61023b610364366004612173565b610a4e565b61023b610377366004612115565b610ada565b61023b61038a366004611feb565b610af5565b6102ba61039d366004611feb565b610b6f565b61023b6103b0366004612004565b610c02565b61023b6103c336600461218e565b610c52565b6102656103d6366004611feb565b610cdc565b6102ba6103e9366004612173565b610d53565b61023b610dda565b61023b610404366004611feb565b610e10565b6102ba600d5481565b600c546001600160a01b0316610265565b610245610e91565b61023b6104393660046121ca565b610ea0565b61023b610eab565b61023b610454366004612206565b610f1a565b610245610467366004611feb565b610f4c565b61021361047a366004612282565b6001600160a01b03918216600090815260056020908152604080832093909416825291909152205460ff1690565b61023b6104b6366004612173565b61109f565b61023b6104c9366004612173565b611137565b60006104d9826111af565b92915050565b600e546001600160a01b031633146105125760405162461bcd60e51b8152600401610509906122ac565b60405180910390fd5b61051c82826111d4565b604080516001600160a01b03841681526001600160601b03831660208201527fa1edde4ed5c1392c90dccd8e051a4080b761850e49a24c77d826348a51e1f8dc91015b60405180910390a15050565b60606000805461057a906122d0565b80601f01602080910402602001604051908101604052809291908181526020018280546105a6906122d0565b80156105f35780601f106105c8576101008083540402835291602001916105f3565b820191906000526020600020905b8154815290600101906020018083116105d657829003601f168201915b5050505050905090565b6000818152600260205260408120546001600160a01b03166106765760405162461bcd60e51b815260206004820152602c60248201527f4552433732313a20617070726f76656420717565727920666f72206e6f6e657860448201526b34b9ba32b73a103a37b5b2b760a11b6064820152608401610509565b506000908152600460205260409020546001600160a01b031690565b600061069d82610cdc565b9050806001600160a01b0316836001600160a01b0316141561070b5760405162461bcd60e51b815260206004820152602160248201527f4552433732313a20617070726f76616c20746f2063757272656e74206f776e656044820152603960f91b6064820152608401610509565b336001600160a01b03821614806107275750610727813361047a565b6107995760405162461bcd60e51b815260206004820152603860248201527f4552433732313a20617070726f76652063616c6c6572206973206e6f74206f7760448201527f6e6572206e6f7220617070726f76656420666f7220616c6c00000000000000006064820152608401610509565b6107a3838361128e565b505050565b600e546001600160a01b031633146107d25760405162461bcd60e51b8152600401610509906122ac565b816107f05780516107ea90600f906020840190611e57565b5061082a565b600182141561080c5780516107ea906010906020840190611e57565b600282141561082a578051610828906012906020840190611e57565b505b7fd2d827dddfc9c9a02afc5fc68d3251684b36e213a7999ebd90a861f25df4077e828260405161055f92919061230b565b610866335b826112fc565b6108825760405162461bcd60e51b815260040161050990612324565b6107a38383836113f3565b6000828152600b602090815260408083208151808301909252546001600160a01b038116808352600160a01b9091046001600160601b0316928201929092528291610902575060408051808201909152600a546001600160a01b0381168252600160a01b90046001600160601b031660208201525b602081015160009061271090610921906001600160601b03168761238b565b61092b91906123c0565b915196919550909350505050565b600061094483610d53565b82106109a65760405162461bcd60e51b815260206004820152602b60248201527f455243373231456e756d657261626c653a206f776e657220696e646578206f7560448201526a74206f6620626f756e647360a81b6064820152608401610509565b506001600160a01b03919091166000908152600660209081526040808320938352929052205490565b816109d981610cdc565b6001600160a01b0316336001600160a01b031614610a295760405162461bcd60e51b815260206004820152600d60248201526c2737ba1027232a1037bbb732b960991b6044820152606401610509565b60008381526013602090815260409091208351610a4892850190611e57565b50505050565b600e546001600160a01b03163314610a785760405162461bcd60e51b8152600401610509906122ac565b600d8054906001906000610a8c83856123d4565b9091555060409050610a9c61159a565b610aa691906123ec565b610acc57602a8114610acc576000818152601160205260409020805460ff191660011790555b610ad682826115fb565b5050565b6107a383838360405180602001604052806000815250610f1a565b610afe33610860565b610b635760405162461bcd60e51b815260206004820152603060248201527f4552433732314275726e61626c653a2063616c6c6572206973206e6f74206f7760448201526f1b995c881b9bdc88185c1c1c9bdd995960821b6064820152608401610509565b610b6c81611615565b50565b6000610b7a60085490565b8210610bdd5760405162461bcd60e51b815260206004820152602c60248201527f455243373231456e756d657261626c653a20676c6f62616c20696e646578206f60448201526b7574206f6620626f756e647360a01b6064820152608401610509565b60088281548110610bf057610bf0612400565b90600052602060002001549050919050565b600e546001600160a01b03163314610c2c5760405162461bcd60e51b8152600401610509906122ac565b60005b818110156107a357610c4083610a4e565b80610c4a81612416565b915050610c2f565b600e546001600160a01b03163314610c7c5760405162461bcd60e51b8152600401610509906122ac565b610c878383836116bc565b604080518481526001600160a01b03841660208201526001600160601b0383168183015290517f2595213009f64247e2789cf9981bcc53ee736a6aa52042a651aa1549ae6fff619181900360600190a1505050565b6000818152600260205260408120546001600160a01b0316806104d95760405162461bcd60e51b815260206004820152602960248201527f4552433732313a206f776e657220717565727920666f72206e6f6e657869737460448201526832b73a103a37b5b2b760b91b6064820152608401610509565b60006001600160a01b038216610dbe5760405162461bcd60e51b815260206004820152602a60248201527f4552433732313a2062616c616e636520717565727920666f7220746865207a65604482015269726f206164647265737360b01b6064820152608401610509565b506001600160a01b031660009081526003602052604090205490565b600c546001600160a01b03163314610e045760405162461bcd60e51b815260040161050990612431565b610e0e6000611787565b565b600e546001600160a01b03163314610e3a5760405162461bcd60e51b8152600401610509906122ac565b6000818152600b602052604081205560408051828152600060208201819052918101919091527f2595213009f64247e2789cf9981bcc53ee736a6aa52042a651aa1549ae6fff61906060015b60405180910390a150565b60606001805461057a906122d0565b610ad63383836117d9565b600e546001600160a01b03163314610ed55760405162461bcd60e51b8152600401610509906122ac565b610edf6000600a55565b60408051600080825260208201527fa1edde4ed5c1392c90dccd8e051a4080b761850e49a24c77d826348a51e1f8dc910160405180910390a1565b610f2433836112fc565b610f405760405162461bcd60e51b815260040161050990612324565b610a48848484846118a8565b6000818152600260205260409020546060906001600160a01b0316610fa75760405162461bcd60e51b81526020600482015260116024820152702737b732bc34b9ba32b73a103a37b5b2b760791b6044820152606401610509565b610fb0826118db565b156110535760008281526013602052604090208054610fce906122d0565b80601f0160208091040260200160405190810160405280929190818152602001828054610ffa906122d0565b80156110475780601f1061101c57610100808354040283529160200191611047565b820191906000526020600020905b81548152906001019060200180831161102a57829003601f168201915b50505050509050919050565b60008281526011602052604090205460ff16156110775760108054610fce906122d0565b602a82141561108d5760128054610fce906122d0565b600f8054610fce906122d0565b919050565b600c546001600160a01b031633146110c95760405162461bcd60e51b815260040161050990612431565b6001600160a01b03811661112e5760405162461bcd60e51b815260206004820152602660248201527f4f776e61626c653a206e6577206f776e657220697320746865207a65726f206160448201526564647265737360d01b6064820152608401610509565b610b6c81611787565b600c546001600160a01b031633146111615760405162461bcd60e51b815260040161050990612431565b600e80546001600160a01b0319166001600160a01b0383169081179091556040519081527fcec52196e972044edde8689a1b608e459c5946b7f3e5c8cd3d6d8e126d422e1c90602001610e86565b60006001600160e01b0319821663152a902d60e11b14806104d957506104d982611901565b6127106001600160601b03821611156111ff5760405162461bcd60e51b815260040161050990612466565b6001600160a01b0382166112555760405162461bcd60e51b815260206004820152601960248201527f455243323938313a20696e76616c6964207265636569766572000000000000006044820152606401610509565b604080518082019091526001600160a01b039092168083526001600160601b039091166020909201829052600160a01b90910217600a55565b600081815260046020526040902080546001600160a01b0319166001600160a01b03841690811790915581906112c382610cdc565b6001600160a01b03167f8c5be1e5ebec7d5bd14f71427d1e84f3dd0314c0f7b2291e5b200ac8c7c3b92560405160405180910390a45050565b6000818152600260205260408120546001600160a01b03166113755760405162461bcd60e51b815260206004820152602c60248201527f4552433732313a206f70657261746f7220717565727920666f72206e6f6e657860448201526b34b9ba32b73a103a37b5b2b760a11b6064820152608401610509565b600061138083610cdc565b9050806001600160a01b0316846001600160a01b031614806113c757506001600160a01b0380821660009081526005602090815260408083209388168352929052205460ff165b806113eb5750836001600160a01b03166113e0846105fd565b6001600160a01b0316145b949350505050565b826001600160a01b031661140682610cdc565b6001600160a01b03161461146a5760405162461bcd60e51b815260206004820152602560248201527f4552433732313a207472616e736665722066726f6d20696e636f72726563742060448201526437bbb732b960d91b6064820152608401610509565b6001600160a01b0382166114cc5760405162461bcd60e51b8152602060048201526024808201527f4552433732313a207472616e7366657220746f20746865207a65726f206164646044820152637265737360e01b6064820152608401610509565b6114d7838383611926565b6114e260008261128e565b6001600160a01b038316600090815260036020526040812080546001929061150b9084906124b0565b90915550506001600160a01b03821660009081526003602052604081208054600192906115399084906123d4565b909155505060008181526002602052604080822080546001600160a01b0319166001600160a01b0386811691821790925591518493918716917fddf252ad1be2c89b69c2b068fc378daa952ba7f163c4a11628f55a4df523b3ef91a4505050565b6000444233600d546040516020016115dd9493929190938452602084019290925260601b6bffffffffffffffffffffffff19166040830152605482015260740190565b6040516020818303038152906040528051906020012060001c905090565b610ad6828260405180602001604052806000815250611931565b600061162082610cdc565b905061162e81600084611926565b61163960008361128e565b6001600160a01b03811660009081526003602052604081208054600192906116629084906124b0565b909155505060008281526002602052604080822080546001600160a01b0319169055518391906001600160a01b038416907fddf252ad1be2c89b69c2b068fc378daa952ba7f163c4a11628f55a4df523b3ef908390a45050565b6127106001600160601b03821611156116e75760405162461bcd60e51b815260040161050990612466565b6001600160a01b03821661173d5760405162461bcd60e51b815260206004820152601b60248201527f455243323938313a20496e76616c696420706172616d657465727300000000006044820152606401610509565b6040805180820182526001600160a01b0393841681526001600160601b0392831660208083019182526000968752600b90529190942093519051909116600160a01b029116179055565b600c80546001600160a01b038381166001600160a01b0319831681179093556040519116919082907f8be0079c531659141344cd1fd0a4f28419497f9722a3daafe3b4186f6b6457e090600090a35050565b816001600160a01b0316836001600160a01b0316141561183b5760405162461bcd60e51b815260206004820152601960248201527f4552433732313a20617070726f766520746f2063616c6c6572000000000000006044820152606401610509565b6001600160a01b03838116600081815260056020908152604080832094871680845294825291829020805460ff191686151590811790915591519182527f17307eab39ab6107e8899845ad3d59bd9653f200f220920489ca2b5937696c31910160405180910390a3505050565b6118b38484846113f3565b6118bf84848484611964565b610a485760405162461bcd60e51b8152600401610509906124c7565b600081815260136020526040812080548291906118f7906122d0565b9050119050919050565b60006001600160e01b0319821663780e9d6360e01b14806104d957506104d982611a71565b6107a3838383611ac1565b61193b8383611b79565b6119486000848484611964565b6107a35760405162461bcd60e51b8152600401610509906124c7565b60006001600160a01b0384163b15611a6657604051630a85bd0160e11b81526001600160a01b0385169063150b7a02906119a8903390899088908890600401612519565b602060405180830381600087803b1580156119c257600080fd5b505af19250505080156119f2575060408051601f3d908101601f191682019092526119ef91810190612556565b60015b611a4c573d808015611a20576040519150601f19603f3d011682016040523d82523d6000602084013e611a25565b606091505b508051611a445760405162461bcd60e51b8152600401610509906124c7565b805181602001fd5b6001600160e01b031916630a85bd0160e11b1490506113eb565b506001949350505050565b60006001600160e01b031982166380ac58cd60e01b1480611aa257506001600160e01b03198216635b5e139f60e01b145b806104d957506301ffc9a760e01b6001600160e01b03198316146104d9565b6001600160a01b038316611b1c57611b1781600880546000838152600960205260408120829055600182018355919091527ff3f7a9fe364faab93b216da50a3214154f22a0a2b415b23a84c8169e8b636ee30155565b611b3f565b816001600160a01b0316836001600160a01b031614611b3f57611b3f8382611cc7565b6001600160a01b038216611b56576107a381611d64565b826001600160a01b0316826001600160a01b0316146107a3576107a38282611e13565b6001600160a01b038216611bcf5760405162461bcd60e51b815260206004820181905260248201527f4552433732313a206d696e7420746f20746865207a65726f20616464726573736044820152606401610509565b6000818152600260205260409020546001600160a01b031615611c345760405162461bcd60e51b815260206004820152601c60248201527f4552433732313a20746f6b656e20616c7265616479206d696e746564000000006044820152606401610509565b611c4060008383611926565b6001600160a01b0382166000908152600360205260408120805460019290611c699084906123d4565b909155505060008181526002602052604080822080546001600160a01b0319166001600160a01b03861690811790915590518392907fddf252ad1be2c89b69c2b068fc378daa952ba7f163c4a11628f55a4df523b3ef908290a45050565b60006001611cd484610d53565b611cde91906124b0565b600083815260076020526040902054909150808214611d31576001600160a01b03841660009081526006602090815260408083208584528252808320548484528184208190558352600790915290208190555b5060009182526007602090815260408084208490556001600160a01b039094168352600681528383209183525290812055565b600854600090611d76906001906124b0565b60008381526009602052604081205460088054939450909284908110611d9e57611d9e612400565b906000526020600020015490508060088381548110611dbf57611dbf612400565b6000918252602080832090910192909255828152600990915260408082208490558582528120556008805480611df757611df7612573565b6001900381819060005260206000200160009055905550505050565b6000611e1e83610d53565b6001600160a01b039093166000908152600660209081526040808320868452825280832085905593825260079052919091209190915550565b828054611e63906122d0565b90600052602060002090601f016020900481019282611e855760008555611ecb565b82601f10611e9e57805160ff1916838001178555611ecb565b82800160010185558215611ecb579182015b82811115611ecb578251825591602001919060010190611eb0565b50611ed7929150611edb565b5090565b5b80821115611ed75760008155600101611edc565b6001600160e01b031981168114610b6c57600080fd5b600060208284031215611f1857600080fd5b8135611f2381611ef0565b9392505050565b80356001600160a01b038116811461109a57600080fd5b80356001600160601b038116811461109a57600080fd5b60008060408385031215611f6b57600080fd5b611f7483611f2a565b9150611f8260208401611f41565b90509250929050565b6000815180845260005b81811015611fb157602081850181015186830182015201611f95565b81811115611fc3576000602083870101525b50601f01601f19169290920160200192915050565b602081526000611f236020830184611f8b565b600060208284031215611ffd57600080fd5b5035919050565b6000806040838503121561201757600080fd5b61202083611f2a565b946020939093013593505050565b634e487b7160e01b600052604160045260246000fd5b600067ffffffffffffffff8084111561205f5761205f61202e565b604051601f8501601f19908116603f011681019082821181831017156120875761208761202e565b816040528093508581528686860111156120a057600080fd5b858560208301376000602087830101525050509392505050565b600080604083850312156120cd57600080fd5b82359150602083013567ffffffffffffffff8111156120eb57600080fd5b8301601f810185136120fc57600080fd5b61210b85823560208401612044565b9150509250929050565b60008060006060848603121561212a57600080fd5b61213384611f2a565b925061214160208501611f2a565b9150604084013590509250925092565b6000806040838503121561216457600080fd5b50508035926020909101359150565b60006020828403121561218557600080fd5b611f2382611f2a565b6000806000606084860312156121a357600080fd5b833592506121b360208501611f2a565b91506121c160408501611f41565b90509250925092565b600080604083850312156121dd57600080fd5b6121e683611f2a565b9150602083013580151581146121fb57600080fd5b809150509250929050565b6000806000806080858703121561221c57600080fd5b61222585611f2a565b935061223360208601611f2a565b925060408501359150606085013567ffffffffffffffff81111561225657600080fd5b8501601f8101871361226757600080fd5b61227687823560208401612044565b91505092959194509250565b6000806040838503121561229557600080fd5b61229e83611f2a565b9150611f8260208401611f2a565b6020808252600a90820152692737ba1036b4b73a32b960b11b604082015260600190565b600181811c908216806122e457607f821691505b6020821081141561230557634e487b7160e01b600052602260045260246000fd5b50919050565b8281526040602082015260006113eb6040830184611f8b565b60208082526031908201527f4552433732313a207472616e736665722063616c6c6572206973206e6f74206f6040820152701ddb995c881b9bdc88185c1c1c9bdd9959607a1b606082015260800190565b634e487b7160e01b600052601160045260246000fd5b60008160001904831182151516156123a5576123a5612375565b500290565b634e487b7160e01b600052601260045260246000fd5b6000826123cf576123cf6123aa565b500490565b600082198211156123e7576123e7612375565b500190565b6000826123fb576123fb6123aa565b500690565b634e487b7160e01b600052603260045260246000fd5b600060001982141561242a5761242a612375565b5060010190565b6020808252818101527f4f776e61626c653a2063616c6c6572206973206e6f7420746865206f776e6572604082015260600190565b6020808252602a908201527f455243323938313a20726f79616c7479206665652077696c6c206578636565646040820152692073616c65507269636560b01b606082015260800190565b6000828210156124c2576124c2612375565b500390565b60208082526032908201527f4552433732313a207472616e7366657220746f206e6f6e20455243373231526560408201527131b2b4bb32b91034b6b83632b6b2b73a32b960711b606082015260800190565b6001600160a01b038581168252841660208201526040810183905260806060820181905260009061254c90830184611f8b565b9695505050505050565b60006020828403121561256857600080fd5b8151611f2381611ef0565b634e487b7160e01b600052603160045260246000fdfea2646970667358221220b594c8775db445c05c1dc53c8216a6cf4bf4eca5c4da2779c97ddc9eacdd980d64736f6c63430008090033",
  "devdoc": {
    "kind": "dev",
    "methods": {
      "approve(address,uint256)": {
        "details": "See {IERC721-approve}."
      },
      "balanceOf(address)": {
        "details": "See {IERC721-balanceOf}."
      },
      "batchSafeMint(address,uint256)": {
        "params": {
          "count": ": number of NFTs to mint for the owner",
          "to": ": owner address of the minted NFTs"
        }
      },
      "burn(uint256)": {
        "details": "Burns `tokenId`. See {ERC721-_burn}. Requirements: - The caller must own `tokenId` or be an approved operator."
      },
      "getApproved(uint256)": {
        "details": "See {IERC721-getApproved}."
      },
      "isApprovedForAll(address,address)": {
        "details": "See {IERC721-isApprovedForAll}."
      },
      "name()": {
        "details": "See {IERC721Metadata-name}."
      },
      "owner()": {
        "details": "Returns the address of the current owner."
      },
      "ownerOf(uint256)": {
        "details": "See {IERC721-ownerOf}."
      },
      "renounceOwnership()": {
        "details": "Leaves the contract without owner. It will not be possible to call `onlyOwner` functions anymore. Can only be called by the current owner. NOTE: Renouncing ownership will leave the contract without an owner, thereby removing any functionality that is only available to the owner."
      },
      "resetTokenRoyalty(uint256)": {
        "params": {
          "tokenID": ": token ID"
        }
      },
      "royaltyInfo(uint256,uint256)": {
        "details": "Returns how much royalty is owed and to whom, based on a sale price that may be denominated in any unit of exchange. The royalty amount is denominated and should be paid in that same unit of exchange."
      },
      "safeMint(address)": {
        "params": {
          "to": ": owner address of the minted NFT"
        }
      },
      "safeTransferFrom(address,address,uint256)": {
        "details": "See {IERC721-safeTransferFrom}."
      },
      "safeTransferFrom(address,address,uint256,bytes)": {
        "details": "See {IERC721-safeTransferFrom}."
      },
      "setApprovalForAll(address,bool)": {
        "details": "See {IERC721-setApprovalForAll}."
      },
      "setDefaultRoyalty(address,uint96)": {
        "params": {
          "feeNumerator": ": fee Numerator, over 10000",
          "receiver": ": address of the royalty receiver"
        }
      },
      "setMinter(address)": {
        "params": {
          "minter_": ": minter address"
        }
      },
      "setTokenMutableURI(uint256,string)": {
        "params": {
          "newTokenMutableURI": ": token URI",
          "tokenID": ": token ID"
        }
      },
      "setTokenRoyalty(uint256,address,uint96)": {
        "params": {
          "feeNumerator": ": fee Numerator, over 10000",
          "receiver": ": address of the royalty receiver",
          "tokenID": ": token ID"
        }
      },
      "setTokenURI(uint256,string)": {
        "params": {
          "newTokenURI": ": token URI associated with the type",
          "ntype": ": NFT type : STANDARD_TYPE 0, GOLD_TYPE 1 or INVISIBLE_TYPE 2"
        }
      },
      "supportsInterface(bytes4)": {
        "params": {
          "interfaceId": ": interface ID"
        },
        "returns": {
          "_0": "true if the interface is implemented"
        }
      },
      "symbol()": {
        "details": "See {IERC721Metadata-symbol}."
      },
      "tokenByIndex(uint256)": {
        "details": "See {IERC721Enumerable-tokenByIndex}."
      },
      "tokenOfOwnerByIndex(address,uint256)": {
        "details": "See {IERC721Enumerable-tokenOfOwnerByIndex}."
      },
      "tokenURI(uint256)": {
        "params": {
          "tokenID": ": tokenID to get tokenURI"
        },
        "returns": {
          "uri": "of the token"
        }
      },
      "totalSupply()": {
        "details": "See {IERC721Enumerable-totalSupply}."
      },
      "transferFrom(address,address,uint256)": {
        "details": "See {IERC721-transferFrom}."
      },
      "transferOwnership(address)": {
        "details": "Transfers ownership of the contract to a new account (`newOwner`). Can only be called by the current owner."
      }
    },
    "title": "TheUbiquityStick smartcontract",
    "version": 1
  },
  "userdoc": {
    "events": {
      "SetDefaultRoyalty(address,uint96)": {
        "notice": "ROYALTY EVENTS"
      },
      "SetMinter(address)": {
        "notice": "MINTING EVENTS and FUNCTIONS"
      }
    },
    "kind": "user",
    "methods": {
      "batchSafeMint(address,uint256)": {
        "notice": "BATCH MINT function only allowed to minter"
      },
      "constructor": {
        "notice": "TheUbiquityStick constructorFirst owner is the deployer"
      },
      "deleteDefaultRoyalty()": {
        "notice": "DELETE default royalty configuration"
      },
      "minter()": {
        "notice": "MINTER address"
      },
      "resetTokenRoyalty(uint256)": {
        "notice": "RESET token royalty configuration"
      },
      "safeMint(address)": {
        "notice": "MINT function only allowed to minter"
      },
      "setDefaultRoyalty(address,uint96)": {
        "notice": "SET default royalty configuration"
      },
      "setMinter(address)": {
        "notice": "SET minter only allowed to owner"
      },
      "setTokenMutableURI(uint256,string)": {
        "notice": "SET tokenMutableURI, only allowed to owner"
      },
      "setTokenRoyalty(uint256,address,uint96)": {
        "notice": "SET token royalty configuration"
      },
      "setTokenURI(uint256,string)": {
        "notice": "SET tokenURI, only allowed to minter"
      },
      "supportsInterface(bytes4)": {
        "notice": "pseudo random function"
      },
      "tokenIdNext()": {
        "notice": "tokenID of next minted NFTequal to the number of NFT already minted"
      },
      "tokenURI(uint256)": {
        "notice": "GET tokenURI"
      }
    },
    "version": 1
  },
  "storageLayout": {
    "storage": [
      {
        "astId": 491,
        "contract": "contracts/TheUbiquityStick.sol:TheUbiquityStick",
        "label": "_name",
        "offset": 0,
        "slot": "0",
        "type": "t_string_storage"
      },
      {
        "astId": 493,
        "contract": "contracts/TheUbiquityStick.sol:TheUbiquityStick",
        "label": "_symbol",
        "offset": 0,
        "slot": "1",
        "type": "t_string_storage"
      },
      {
        "astId": 497,
        "contract": "contracts/TheUbiquityStick.sol:TheUbiquityStick",
        "label": "_owners",
        "offset": 0,
        "slot": "2",
        "type": "t_mapping(t_uint256,t_address)"
      },
      {
        "astId": 501,
        "contract": "contracts/TheUbiquityStick.sol:TheUbiquityStick",
        "label": "_balances",
        "offset": 0,
        "slot": "3",
        "type": "t_mapping(t_address,t_uint256)"
      },
      {
        "astId": 505,
        "contract": "contracts/TheUbiquityStick.sol:TheUbiquityStick",
        "label": "_tokenApprovals",
        "offset": 0,
        "slot": "4",
        "type": "t_mapping(t_uint256,t_address)"
      },
      {
        "astId": 511,
        "contract": "contracts/TheUbiquityStick.sol:TheUbiquityStick",
        "label": "_operatorApprovals",
        "offset": 0,
        "slot": "5",
        "type": "t_mapping(t_address,t_mapping(t_address,t_bool))"
      },
      {
        "astId": 1510,
        "contract": "contracts/TheUbiquityStick.sol:TheUbiquityStick",
        "label": "_ownedTokens",
        "offset": 0,
        "slot": "6",
        "type": "t_mapping(t_address,t_mapping(t_uint256,t_uint256))"
      },
      {
        "astId": 1514,
        "contract": "contracts/TheUbiquityStick.sol:TheUbiquityStick",
        "label": "_ownedTokensIndex",
        "offset": 0,
        "slot": "7",
        "type": "t_mapping(t_uint256,t_uint256)"
      },
      {
        "astId": 1517,
        "contract": "contracts/TheUbiquityStick.sol:TheUbiquityStick",
        "label": "_allTokens",
        "offset": 0,
        "slot": "8",
        "type": "t_array(t_uint256)dyn_storage"
      },
      {
        "astId": 1521,
        "contract": "contracts/TheUbiquityStick.sol:TheUbiquityStick",
        "label": "_allTokensIndex",
        "offset": 0,
        "slot": "9",
        "type": "t_mapping(t_uint256,t_uint256)"
      },
      {
        "astId": 1908,
        "contract": "contracts/TheUbiquityStick.sol:TheUbiquityStick",
        "label": "_defaultRoyaltyInfo",
        "offset": 0,
        "slot": "10",
        "type": "t_struct(RoyaltyInfo)1905_storage"
      },
      {
        "astId": 1913,
        "contract": "contracts/TheUbiquityStick.sol:TheUbiquityStick",
        "label": "_tokenRoyaltyInfo",
        "offset": 0,
        "slot": "11",
        "type": "t_mapping(t_uint256,t_struct(RoyaltyInfo)1905_storage)"
      },
      {
        "astId": 7,
        "contract": "contracts/TheUbiquityStick.sol:TheUbiquityStick",
        "label": "_owner",
        "offset": 0,
        "slot": "12",
        "type": "t_address"
      },
      {
        "astId": 2670,
        "contract": "contracts/TheUbiquityStick.sol:TheUbiquityStick",
        "label": "tokenIdNext",
        "offset": 0,
        "slot": "13",
        "type": "t_uint256"
      },
      {
        "astId": 2673,
        "contract": "contracts/TheUbiquityStick.sol:TheUbiquityStick",
        "label": "minter",
        "offset": 0,
        "slot": "14",
        "type": "t_address"
      },
      {
        "astId": 2676,
        "contract": "contracts/TheUbiquityStick.sol:TheUbiquityStick",
        "label": "_tokenURI",
        "offset": 0,
        "slot": "15",
        "type": "t_string_storage"
      },
      {
        "astId": 2682,
        "contract": "contracts/TheUbiquityStick.sol:TheUbiquityStick",
        "label": "_goldTokenURI",
        "offset": 0,
        "slot": "16",
        "type": "t_string_storage"
      },
      {
        "astId": 2686,
        "contract": "contracts/TheUbiquityStick.sol:TheUbiquityStick",
        "label": "gold",
        "offset": 0,
        "slot": "17",
        "type": "t_mapping(t_uint256,t_bool)"
      },
      {
        "astId": 2695,
        "contract": "contracts/TheUbiquityStick.sol:TheUbiquityStick",
        "label": "_invisibleTokenURI",
        "offset": 0,
        "slot": "18",
        "type": "t_string_storage"
      },
      {
        "astId": 2706,
        "contract": "contracts/TheUbiquityStick.sol:TheUbiquityStick",
        "label": "_tokenURIs",
        "offset": 0,
        "slot": "19",
        "type": "t_mapping(t_uint256,t_string_storage)"
      }
    ],
    "types": {
      "t_address": {
        "encoding": "inplace",
        "label": "address",
        "numberOfBytes": "20"
      },
      "t_array(t_uint256)dyn_storage": {
        "base": "t_uint256",
        "encoding": "dynamic_array",
        "label": "uint256[]",
        "numberOfBytes": "32"
      },
      "t_bool": {
        "encoding": "inplace",
        "label": "bool",
        "numberOfBytes": "1"
      },
      "t_mapping(t_address,t_bool)": {
        "encoding": "mapping",
        "key": "t_address",
        "label": "mapping(address => bool)",
        "numberOfBytes": "32",
        "value": "t_bool"
      },
      "t_mapping(t_address,t_mapping(t_address,t_bool))": {
        "encoding": "mapping",
        "key": "t_address",
        "label": "mapping(address => mapping(address => bool))",
        "numberOfBytes": "32",
        "value": "t_mapping(t_address,t_bool)"
      },
      "t_mapping(t_address,t_mapping(t_uint256,t_uint256))": {
        "encoding": "mapping",
        "key": "t_address",
        "label": "mapping(address => mapping(uint256 => uint256))",
        "numberOfBytes": "32",
        "value": "t_mapping(t_uint256,t_uint256)"
      },
      "t_mapping(t_address,t_uint256)": {
        "encoding": "mapping",
        "key": "t_address",
        "label": "mapping(address => uint256)",
        "numberOfBytes": "32",
        "value": "t_uint256"
      },
      "t_mapping(t_uint256,t_address)": {
        "encoding": "mapping",
        "key": "t_uint256",
        "label": "mapping(uint256 => address)",
        "numberOfBytes": "32",
        "value": "t_address"
      },
      "t_mapping(t_uint256,t_bool)": {
        "encoding": "mapping",
        "key": "t_uint256",
        "label": "mapping(uint256 => bool)",
        "numberOfBytes": "32",
        "value": "t_bool"
      },
      "t_mapping(t_uint256,t_string_storage)": {
        "encoding": "mapping",
        "key": "t_uint256",
        "label": "mapping(uint256 => string)",
        "numberOfBytes": "32",
        "value": "t_string_storage"
      },
      "t_mapping(t_uint256,t_struct(RoyaltyInfo)1905_storage)": {
        "encoding": "mapping",
        "key": "t_uint256",
        "label": "mapping(uint256 => struct ERC2981.RoyaltyInfo)",
        "numberOfBytes": "32",
        "value": "t_struct(RoyaltyInfo)1905_storage"
      },
      "t_mapping(t_uint256,t_uint256)": {
        "encoding": "mapping",
        "key": "t_uint256",
        "label": "mapping(uint256 => uint256)",
        "numberOfBytes": "32",
        "value": "t_uint256"
      },
      "t_string_storage": {
        "encoding": "bytes",
        "label": "string",
        "numberOfBytes": "32"
      },
      "t_struct(RoyaltyInfo)1905_storage": {
        "encoding": "inplace",
        "label": "struct ERC2981.RoyaltyInfo",
        "members": [
          {
            "astId": 1902,
            "contract": "contracts/TheUbiquityStick.sol:TheUbiquityStick",
            "label": "receiver",
            "offset": 0,
            "slot": "0",
            "type": "t_address"
          },
          {
            "astId": 1904,
            "contract": "contracts/TheUbiquityStick.sol:TheUbiquityStick",
            "label": "royaltyFraction",
            "offset": 20,
            "slot": "0",
            "type": "t_uint96"
          }
        ],
        "numberOfBytes": "32"
      },
      "t_uint256": {
        "encoding": "inplace",
        "label": "uint256",
        "numberOfBytes": "32"
      },
      "t_uint96": {
        "encoding": "inplace",
        "label": "uint96",
        "numberOfBytes": "12"
      }
    }
  }
}