{
  "address": "0x9dDAd52a4D13C00a76931cDef471e39b204EEa5A",
  "abi": [
    {
      "inputs": [
        {
          "internalType": "address",
          "name": "manager_",
          "type": "address"
        }
      ],
      "stateMutability": "nonpayable",
      "type": "constructor"
    },
    {
      "anonymous": false,
      "inputs": [
        {
          "indexed": true,
          "internalType": "address",
          "name": "owner",
          "type": "address"
        },
        {
          "indexed": true,
          "internalType": "address",
          "name": "approved",
          "type": "address"
        },
        {
          "indexed": true,
          "internalType": "uint256",
          "name": "tokenId",
          "type": "uint256"
        }
      ],
      "name": "Approval",
      "type": "event"
    },
    {
      "anonymous": false,
      "inputs": [
        {
          "indexed": true,
          "internalType": "address",
          "name": "owner",
          "type": "address"
        },
        {
          "indexed": true,
          "internalType": "address",
          "name": "operator",
          "type": "address"
        },
        {
          "indexed": false,
          "internalType": "bool",
          "name": "approved",
          "type": "bool"
        }
      ],
      "name": "ApprovalForAll",
      "type": "event"
    },
    {
      "anonymous": false,
      "inputs": [
        {
          "indexed": true,
          "internalType": "address",
          "name": "from",
          "type": "address"
        },
        {
          "indexed": true,
          "internalType": "address",
          "name": "to",
          "type": "address"
        },
        {
          "indexed": true,
          "internalType": "uint256",
          "name": "tokenId",
          "type": "uint256"
        }
      ],
      "name": "Transfer",
      "type": "event"
    },
    {
      "inputs": [
        {
          "internalType": "address",
          "name": "to",
          "type": "address"
        },
        {
          "internalType": "uint256",
          "name": "tokenId",
          "type": "uint256"
        }
      ],
      "name": "approve",
      "outputs": [],
      "stateMutability": "nonpayable",
      "type": "function"
    },
    {
      "inputs": [
        {
          "internalType": "address",
          "name": "owner",
          "type": "address"
        }
      ],
      "name": "balanceOf",
      "outputs": [
        {
          "internalType": "uint256",
          "name": "",
          "type": "uint256"
        }
      ],
      "stateMutability": "view",
      "type": "function"
    },
    {
      "inputs": [
        {
          "internalType": "uint256",
          "name": "tokenId",
          "type": "uint256"
        }
      ],
      "name": "burn",
      "outputs": [],
      "stateMutability": "nonpayable",
      "type": "function"
    },
    {
      "inputs": [
        {
          "internalType": "uint256",
          "name": "tokenId",
          "type": "uint256"
        }
      ],
      "name": "getApproved",
      "outputs": [
        {
          "internalType": "address",
          "name": "",
          "type": "address"
        }
      ],
      "stateMutability": "view",
      "type": "function"
    },
    {
      "inputs": [
        {
          "internalType": "uint256",
          "name": "",
          "type": "uint256"
        }
      ],
      "name": "gold",
      "outputs": [
        {
          "internalType": "bool",
          "name": "",
          "type": "bool"
        }
      ],
      "stateMutability": "view",
      "type": "function"
    },
    {
      "inputs": [
        {
          "internalType": "address",
          "name": "owner",
          "type": "address"
        },
        {
          "internalType": "address",
          "name": "operator",
          "type": "address"
        }
      ],
      "name": "isApprovedForAll",
      "outputs": [
        {
          "internalType": "bool",
          "name": "",
          "type": "bool"
        }
      ],
      "stateMutability": "view",
      "type": "function"
    },
    {
      "inputs": [],
      "name": "name",
      "outputs": [
        {
          "internalType": "string",
          "name": "",
          "type": "string"
        }
      ],
      "stateMutability": "view",
      "type": "function"
    },
    {
      "inputs": [
        {
          "internalType": "uint256",
          "name": "tokenId",
          "type": "uint256"
        }
      ],
      "name": "ownerOf",
      "outputs": [
        {
          "internalType": "address",
          "name": "",
          "type": "address"
        }
      ],
      "stateMutability": "view",
      "type": "function"
    },
    {
      "inputs": [
        {
          "internalType": "address",
          "name": "to",
          "type": "address"
        }
      ],
      "name": "safeMint",
      "outputs": [],
      "stateMutability": "nonpayable",
      "type": "function"
    },
    {
      "inputs": [
        {
          "internalType": "address",
          "name": "from",
          "type": "address"
        },
        {
          "internalType": "address",
          "name": "to",
          "type": "address"
        },
        {
          "internalType": "uint256",
          "name": "tokenId",
          "type": "uint256"
        }
      ],
      "name": "safeTransferFrom",
      "outputs": [],
      "stateMutability": "nonpayable",
      "type": "function"
    },
    {
      "inputs": [
        {
          "internalType": "address",
          "name": "from",
          "type": "address"
        },
        {
          "internalType": "address",
          "name": "to",
          "type": "address"
        },
        {
          "internalType": "uint256",
          "name": "tokenId",
          "type": "uint256"
        },
        {
          "internalType": "bytes",
          "name": "_data",
          "type": "bytes"
        }
      ],
      "name": "safeTransferFrom",
      "outputs": [],
      "stateMutability": "nonpayable",
      "type": "function"
    },
    {
      "inputs": [
        {
          "internalType": "address",
          "name": "operator",
          "type": "address"
        },
        {
          "internalType": "bool",
          "name": "approved",
          "type": "bool"
        }
      ],
      "name": "setApprovalForAll",
      "outputs": [],
      "stateMutability": "nonpayable",
      "type": "function"
    },
    {
      "inputs": [
        {
          "internalType": "string",
          "name": "tokenURI_",
          "type": "string"
        },
        {
          "internalType": "uint256",
          "name": "ntype",
          "type": "uint256"
        }
      ],
      "name": "setTokenURI",
      "outputs": [],
      "stateMutability": "nonpayable",
      "type": "function"
    },
    {
      "inputs": [
        {
          "internalType": "bytes4",
          "name": "interfaceId",
          "type": "bytes4"
        }
      ],
      "name": "supportsInterface",
      "outputs": [
        {
          "internalType": "bool",
          "name": "",
          "type": "bool"
        }
      ],
      "stateMutability": "view",
      "type": "function"
    },
    {
      "inputs": [],
      "name": "symbol",
      "outputs": [
        {
          "internalType": "string",
          "name": "",
          "type": "string"
        }
      ],
      "stateMutability": "view",
      "type": "function"
    },
    {
      "inputs": [],
      "name": "tokenIdNext",
      "outputs": [
        {
          "internalType": "uint256",
          "name": "",
          "type": "uint256"
        }
      ],
      "stateMutability": "view",
      "type": "function"
    },
    {
      "inputs": [
        {
          "internalType": "uint256",
          "name": "tokenId",
          "type": "uint256"
        }
      ],
      "name": "tokenURI",
      "outputs": [
        {
          "internalType": "string",
          "name": "uri",
          "type": "string"
        }
      ],
      "stateMutability": "view",
      "type": "function"
    },
    {
      "inputs": [
        {
          "internalType": "address",
          "name": "from",
          "type": "address"
        },
        {
          "internalType": "address",
          "name": "to",
          "type": "address"
        },
        {
          "internalType": "uint256",
          "name": "tokenId",
          "type": "uint256"
        }
      ],
      "name": "transferFrom",
      "outputs": [],
      "stateMutability": "nonpayable",
      "type": "function"
    }
  ],
  "transactionHash": "0x71f6f45d8f0373ca81ca583ecb2d05a75c4f96e8a452c9dcd7b38c4ef36ccf0e",
  "args": [
    "0x83ff5d827C454CBe516Dd75bd770D0311fAA8539"
  ],
  "solcInputHash": "5b351ce302ab2c5f831bac821d37dd70",
  "bytecode": "0x608060405260016007553480156200001657600080fd5b5060405162001b3338038062001b33833981016040819052620000399162000171565b604080518082018252600f81526e54686520556269717569537469636b60881b6020808301918252835180850190945260038452624b455960e81b9084015281519192916200008b91600091620000cb565b508051620000a1906001906020840190620000cb565b5050600680546001600160a01b0319166001600160a01b03939093169290921790915550620001e0565b828054620000d990620001a3565b90600052602060002090601f016020900481019282620000fd576000855562000148565b82601f106200011857805160ff191683800117855562000148565b8280016001018555821562000148579182015b82811115620001485782518255916020019190600101906200012b565b50620001569291506200015a565b5090565b5b808211156200015657600081556001016200015b565b6000602082840312156200018457600080fd5b81516001600160a01b03811681146200019c57600080fd5b9392505050565b600181811c90821680620001b857607f821691505b60208210811415620001da57634e487b7160e01b600052602260045260246000fd5b50919050565b61194380620001f06000396000f3fe608060405234801561001057600080fd5b50600436106101165760003560e01c806342966c68116100a257806395d89b411161007157806395d89b4114610257578063a22cb4651461025f578063b88d4fde14610272578063c87b56dd14610285578063e985e9c51461029857600080fd5b806342966c68146102075780636352211e1461021a57806370a082311461022d5780638bbf58b31461024e57600080fd5b806309a3beef116100e957806309a3beef1461019857806320c69e56146101ab57806323b872dd146101ce57806340d097c3146101e157806342842e0e146101f457600080fd5b806301ffc9a71461011b57806306fdde0314610143578063081812fc14610158578063095ea7b314610183575b600080fd5b61012e610129366004611425565b6102d4565b60405190151581526020015b60405180910390f35b61014b610326565b60405161013a9190611496565b61016b6101663660046114a9565b6103b8565b6040516001600160a01b03909116815260200161013a565b6101966101913660046114de565b610452565b005b6101966101a6366004611594565b610568565b61012e6101b93660046114a9565b600a6020526000908152604090205460ff1681565b6101966101dc3660046115ed565b610702565b6101966101ef366004611629565b610734565b6101966102023660046115ed565b6108d8565b6101966102153660046114a9565b6108f3565b61016b6102283660046114a9565b61096d565b61024061023b366004611629565b6109e4565b60405190815260200161013a565b61024060075481565b61014b610a6b565b61019661026d366004611652565b610a7a565b610196610280366004611689565b610a85565b61014b6102933660046114a9565b610abd565b61012e6102a6366004611705565b6001600160a01b03918216600090815260056020908152604080832093909416825291909152205460ff1690565b60006001600160e01b031982166380ac58cd60e01b148061030557506001600160e01b03198216635b5e139f60e01b145b8061032057506301ffc9a760e01b6001600160e01b03198316145b92915050565b60606000805461033590611738565b80601f016020809104026020016040519081016040528092919081815260200182805461036190611738565b80156103ae5780601f10610383576101008083540402835291602001916103ae565b820191906000526020600020905b81548152906001019060200180831161039157829003601f168201915b5050505050905090565b6000818152600260205260408120546001600160a01b03166104365760405162461bcd60e51b815260206004820152602c60248201527f4552433732313a20617070726f76656420717565727920666f72206e6f6e657860448201526b34b9ba32b73a103a37b5b2b760a11b60648201526084015b60405180910390fd5b506000908152600460205260409020546001600160a01b031690565b600061045d8261096d565b9050806001600160a01b0316836001600160a01b031614156104cb5760405162461bcd60e51b815260206004820152602160248201527f4552433732313a20617070726f76616c20746f2063757272656e74206f776e656044820152603960f91b606482015260840161042d565b336001600160a01b03821614806104e757506104e781336102a6565b6105595760405162461bcd60e51b815260206004820152603860248201527f4552433732313a20617070726f76652063616c6c6572206973206e6f74206f7760448201527f6e6572206e6f7220617070726f76656420666f7220616c6c0000000000000000606482015260840161042d565b6105638383610bd7565b505050565b60065460408051632f533cb760e01b815290516001600160a01b03909216916391d14854918391632f533cb791600480820192602092909190829003018186803b1580156105b557600080fd5b505afa1580156105c9573d6000803e3d6000fd5b505050506040513d601f19601f820116820180604052508101906105ed9190611773565b6040516001600160e01b031960e084901b168152600481019190915233602482015260440160206040518083038186803b15801561062a57600080fd5b505afa15801561063e573d6000803e3d6000fd5b505050506040513d601f19601f82011682018060405250810190610662919061178c565b6106ae5760405162461bcd60e51b815260206004820152601c60248201527f476f7665726e616e636520746f6b656e3a206e6f74206d696e74657200000000604482015260640161042d565b806106c6578151610563906008906020850190611376565b60018114156106e2578151610563906009906020850190611376565b60028114156106fe57815161056390600b906020850190611376565b5050565b61070d335b82610c45565b6107295760405162461bcd60e51b815260040161042d906117a9565b610563838383610d3c565b60065460408051632f533cb760e01b815290516001600160a01b03909216916391d14854918391632f533cb791600480820192602092909190829003018186803b15801561078157600080fd5b505afa158015610795573d6000803e3d6000fd5b505050506040513d601f19601f820116820180604052508101906107b99190611773565b6040516001600160e01b031960e084901b168152600481019190915233602482015260440160206040518083038186803b1580156107f657600080fd5b505afa15801561080a573d6000803e3d6000fd5b505050506040513d601f19601f8201168201806040525081019061082e919061178c565b61087a5760405162461bcd60e51b815260206004820152601c60248201527f476f7665726e616e636520746f6b656e3a206e6f74206d696e74657200000000604482015260640161042d565b6007805490600190600061088e8385611810565b909155506040905061089e610edc565b6108a89190611828565b6108ce57602a81146108ce576000818152600a60205260409020805460ff191660011790555b6106fe8282610f3d565b61056383838360405180602001604052806000815250610a85565b6108fc33610707565b6109615760405162461bcd60e51b815260206004820152603060248201527f4552433732314275726e61626c653a2063616c6c6572206973206e6f74206f7760448201526f1b995c881b9bdc88185c1c1c9bdd995960821b606482015260840161042d565b61096a81610f57565b50565b6000818152600260205260408120546001600160a01b0316806103205760405162461bcd60e51b815260206004820152602960248201527f4552433732313a206f776e657220717565727920666f72206e6f6e657869737460448201526832b73a103a37b5b2b760b91b606482015260840161042d565b60006001600160a01b038216610a4f5760405162461bcd60e51b815260206004820152602a60248201527f4552433732313a2062616c616e636520717565727920666f7220746865207a65604482015269726f206164647265737360b01b606482015260840161042d565b506001600160a01b031660009081526003602052604090205490565b60606001805461033590611738565b6106fe338383610ff2565b610a8f3383610c45565b610aab5760405162461bcd60e51b815260040161042d906117a9565b610ab7848484846110c1565b50505050565b6000818152600260205260409020546060906001600160a01b0316610b185760405162461bcd60e51b81526020600482015260116024820152702737b732bc34b9ba32b73a103a37b5b2b760791b604482015260640161042d565b6000828152600a602052604090205460ff16610b4457602a8214610b3d576008610b47565b600b610b47565b60095b8054610b5290611738565b80601f0160208091040260200160405190810160405280929190818152602001828054610b7e90611738565b8015610bcb5780601f10610ba057610100808354040283529160200191610bcb565b820191906000526020600020905b815481529060010190602001808311610bae57829003601f168201915b50505050509050919050565b600081815260046020526040902080546001600160a01b0319166001600160a01b0384169081179091558190610c0c8261096d565b6001600160a01b03167f8c5be1e5ebec7d5bd14f71427d1e84f3dd0314c0f7b2291e5b200ac8c7c3b92560405160405180910390a45050565b6000818152600260205260408120546001600160a01b0316610cbe5760405162461bcd60e51b815260206004820152602c60248201527f4552433732313a206f70657261746f7220717565727920666f72206e6f6e657860448201526b34b9ba32b73a103a37b5b2b760a11b606482015260840161042d565b6000610cc98361096d565b9050806001600160a01b0316846001600160a01b03161480610d045750836001600160a01b0316610cf9846103b8565b6001600160a01b0316145b80610d3457506001600160a01b0380821660009081526005602090815260408083209388168352929052205460ff165b949350505050565b826001600160a01b0316610d4f8261096d565b6001600160a01b031614610db75760405162461bcd60e51b815260206004820152602960248201527f4552433732313a207472616e73666572206f6620746f6b656e2074686174206960448201526839903737ba1037bbb760b91b606482015260840161042d565b6001600160a01b038216610e195760405162461bcd60e51b8152602060048201526024808201527f4552433732313a207472616e7366657220746f20746865207a65726f206164646044820152637265737360e01b606482015260840161042d565b610e24600082610bd7565b6001600160a01b0383166000908152600360205260408120805460019290610e4d90849061184a565b90915550506001600160a01b0382166000908152600360205260408120805460019290610e7b908490611810565b909155505060008181526002602052604080822080546001600160a01b0319166001600160a01b0386811691821790925591518493918716917fddf252ad1be2c89b69c2b068fc378daa952ba7f163c4a11628f55a4df523b3ef91a4505050565b6000444233600754604051602001610f1f9493929190938452602084019290925260601b6bffffffffffffffffffffffff19166040830152605482015260740190565b6040516020818303038152906040528051906020012060001c905090565b6106fe8282604051806020016040528060008152506110f4565b6000610f628261096d565b9050610f6f600083610bd7565b6001600160a01b0381166000908152600360205260408120805460019290610f9890849061184a565b909155505060008281526002602052604080822080546001600160a01b0319169055518391906001600160a01b038416907fddf252ad1be2c89b69c2b068fc378daa952ba7f163c4a11628f55a4df523b3ef908390a45050565b816001600160a01b0316836001600160a01b031614156110545760405162461bcd60e51b815260206004820152601960248201527f4552433732313a20617070726f766520746f2063616c6c657200000000000000604482015260640161042d565b6001600160a01b03838116600081815260056020908152604080832094871680845294825291829020805460ff191686151590811790915591519182527f17307eab39ab6107e8899845ad3d59bd9653f200f220920489ca2b5937696c31910160405180910390a3505050565b6110cc848484610d3c565b6110d884848484611127565b610ab75760405162461bcd60e51b815260040161042d90611861565b6110fe8383611234565b61110b6000848484611127565b6105635760405162461bcd60e51b815260040161042d90611861565b60006001600160a01b0384163b1561122957604051630a85bd0160e11b81526001600160a01b0385169063150b7a029061116b9033908990889088906004016118b3565b602060405180830381600087803b15801561118557600080fd5b505af19250505080156111b5575060408051601f3d908101601f191682019092526111b2918101906118f0565b60015b61120f573d8080156111e3576040519150601f19603f3d011682016040523d82523d6000602084013e6111e8565b606091505b5080516112075760405162461bcd60e51b815260040161042d90611861565b805181602001fd5b6001600160e01b031916630a85bd0160e11b149050610d34565b506001949350505050565b6001600160a01b03821661128a5760405162461bcd60e51b815260206004820181905260248201527f4552433732313a206d696e7420746f20746865207a65726f2061646472657373604482015260640161042d565b6000818152600260205260409020546001600160a01b0316156112ef5760405162461bcd60e51b815260206004820152601c60248201527f4552433732313a20746f6b656e20616c7265616479206d696e74656400000000604482015260640161042d565b6001600160a01b0382166000908152600360205260408120805460019290611318908490611810565b909155505060008181526002602052604080822080546001600160a01b0319166001600160a01b03861690811790915590518392907fddf252ad1be2c89b69c2b068fc378daa952ba7f163c4a11628f55a4df523b3ef908290a45050565b82805461138290611738565b90600052602060002090601f0160209004810192826113a457600085556113ea565b82601f106113bd57805160ff19168380011785556113ea565b828001600101855582156113ea579182015b828111156113ea5782518255916020019190600101906113cf565b506113f69291506113fa565b5090565b5b808211156113f657600081556001016113fb565b6001600160e01b03198116811461096a57600080fd5b60006020828403121561143757600080fd5b81356114428161140f565b9392505050565b6000815180845260005b8181101561146f57602081850181015186830182015201611453565b81811115611481576000602083870101525b50601f01601f19169290920160200192915050565b6020815260006114426020830184611449565b6000602082840312156114bb57600080fd5b5035919050565b80356001600160a01b03811681146114d957600080fd5b919050565b600080604083850312156114f157600080fd5b6114fa836114c2565b946020939093013593505050565b634e487b7160e01b600052604160045260246000fd5b600067ffffffffffffffff8084111561153957611539611508565b604051601f8501601f19908116603f0116810190828211818310171561156157611561611508565b8160405280935085815286868601111561157a57600080fd5b858560208301376000602087830101525050509392505050565b600080604083850312156115a757600080fd5b823567ffffffffffffffff8111156115be57600080fd5b8301601f810185136115cf57600080fd5b6115de8582356020840161151e565b95602094909401359450505050565b60008060006060848603121561160257600080fd5b61160b846114c2565b9250611619602085016114c2565b9150604084013590509250925092565b60006020828403121561163b57600080fd5b611442826114c2565b801515811461096a57600080fd5b6000806040838503121561166557600080fd5b61166e836114c2565b9150602083013561167e81611644565b809150509250929050565b6000806000806080858703121561169f57600080fd5b6116a8856114c2565b93506116b6602086016114c2565b925060408501359150606085013567ffffffffffffffff8111156116d957600080fd5b8501601f810187136116ea57600080fd5b6116f98782356020840161151e565b91505092959194509250565b6000806040838503121561171857600080fd5b611721836114c2565b915061172f602084016114c2565b90509250929050565b600181811c9082168061174c57607f821691505b6020821081141561176d57634e487b7160e01b600052602260045260246000fd5b50919050565b60006020828403121561178557600080fd5b5051919050565b60006020828403121561179e57600080fd5b815161144281611644565b60208082526031908201527f4552433732313a207472616e736665722063616c6c6572206973206e6f74206f6040820152701ddb995c881b9bdc88185c1c1c9bdd9959607a1b606082015260800190565b634e487b7160e01b600052601160045260246000fd5b60008219821115611823576118236117fa565b500190565b60008261184557634e487b7160e01b600052601260045260246000fd5b500690565b60008282101561185c5761185c6117fa565b500390565b60208082526032908201527f4552433732313a207472616e7366657220746f206e6f6e20455243373231526560408201527131b2b4bb32b91034b6b83632b6b2b73a32b960711b606082015260800190565b6001600160a01b03858116825284166020820152604081018390526080606082018190526000906118e690830184611449565b9695505050505050565b60006020828403121561190257600080fd5b81516114428161140f56fea2646970667358221220c6faea12b76512aec38082dce45294902f8617fd7c4a8a3013a9ec166b91c16b64736f6c63430008090033",
  "devdoc": {
    "kind": "dev",
    "methods": {
      "approve(address,uint256)": {
        "details": "See {IERC721-approve}."
      },
      "balanceOf(address)": {
        "details": "See {IERC721-balanceOf}."
      },
      "burn(uint256)": {
        "details": "Burns `tokenId`. See {ERC721-_burn}. Requirements: - The caller must own `tokenId` or be an approved operator."
      },
      "getApproved(uint256)": {
        "details": "See {IERC721-getApproved}."
      },
      "isApprovedForAll(address,address)": {
        "details": "See {IERC721-isApprovedForAll}."
      },
      "name()": {
        "details": "See {IERC721Metadata-name}."
      },
      "ownerOf(uint256)": {
        "details": "See {IERC721-ownerOf}."
      },
      "safeTransferFrom(address,address,uint256)": {
        "details": "See {IERC721-safeTransferFrom}."
      },
      "safeTransferFrom(address,address,uint256,bytes)": {
        "details": "See {IERC721-safeTransferFrom}."
      },
      "setApprovalForAll(address,bool)": {
        "details": "See {IERC721-setApprovalForAll}."
      },
      "supportsInterface(bytes4)": {
        "details": "See {IERC165-supportsInterface}."
      },
      "symbol()": {
        "details": "See {IERC721Metadata-symbol}."
      },
      "tokenURI(uint256)": {
        "details": "See {IERC721Metadata-tokenURI}."
      },
      "transferFrom(address,address,uint256)": {
        "details": "See {IERC721-transferFrom}."
      }
    },
    "version": 1
  },
  "userdoc": {
    "kind": "user",
    "methods": {},
    "version": 1
  },
  "storageLayout": {
    "storage": [
      {
        "astId": 407,
        "contract": "contracts/TheUbiquityStick.sol:TheUbiquityStick",
        "label": "_name",
        "offset": 0,
        "slot": "0",
        "type": "t_string_storage"
      },
      {
        "astId": 409,
        "contract": "contracts/TheUbiquityStick.sol:TheUbiquityStick",
        "label": "_symbol",
        "offset": 0,
        "slot": "1",
        "type": "t_string_storage"
      },
      {
        "astId": 413,
        "contract": "contracts/TheUbiquityStick.sol:TheUbiquityStick",
        "label": "_owners",
        "offset": 0,
        "slot": "2",
        "type": "t_mapping(t_uint256,t_address)"
      },
      {
        "astId": 417,
        "contract": "contracts/TheUbiquityStick.sol:TheUbiquityStick",
        "label": "_balances",
        "offset": 0,
        "slot": "3",
        "type": "t_mapping(t_address,t_uint256)"
      },
      {
        "astId": 421,
        "contract": "contracts/TheUbiquityStick.sol:TheUbiquityStick",
        "label": "_tokenApprovals",
        "offset": 0,
        "slot": "4",
        "type": "t_mapping(t_uint256,t_address)"
      },
      {
        "astId": 427,
        "contract": "contracts/TheUbiquityStick.sol:TheUbiquityStick",
        "label": "_operatorApprovals",
        "offset": 0,
        "slot": "5",
        "type": "t_mapping(t_address,t_mapping(t_address,t_bool))"
      },
      {
        "astId": 1999,
        "contract": "contracts/TheUbiquityStick.sol:TheUbiquityStick",
        "label": "_manager",
        "offset": 0,
        "slot": "6",
        "type": "t_address"
      },
      {
        "astId": 2002,
        "contract": "contracts/TheUbiquityStick.sol:TheUbiquityStick",
        "label": "tokenIdNext",
        "offset": 0,
        "slot": "7",
        "type": "t_uint256"
      },
      {
        "astId": 2004,
        "contract": "contracts/TheUbiquityStick.sol:TheUbiquityStick",
        "label": "_tokenURI",
        "offset": 0,
        "slot": "8",
        "type": "t_string_storage"
      },
      {
        "astId": 2009,
        "contract": "contracts/TheUbiquityStick.sol:TheUbiquityStick",
        "label": "_goldTokenURI",
        "offset": 0,
        "slot": "9",
        "type": "t_string_storage"
      },
      {
        "astId": 2013,
        "contract": "contracts/TheUbiquityStick.sol:TheUbiquityStick",
        "label": "gold",
        "offset": 0,
        "slot": "10",
        "type": "t_mapping(t_uint256,t_bool)"
      },
      {
        "astId": 2021,
        "contract": "contracts/TheUbiquityStick.sol:TheUbiquityStick",
        "label": "_invisibleTokenURI",
        "offset": 0,
        "slot": "11",
        "type": "t_string_storage"
      }
    ],
    "types": {
      "t_address": {
        "encoding": "inplace",
        "label": "address",
        "numberOfBytes": "20"
      },
      "t_bool": {
        "encoding": "inplace",
        "label": "bool",
        "numberOfBytes": "1"
      },
      "t_mapping(t_address,t_bool)": {
        "encoding": "mapping",
        "key": "t_address",
        "label": "mapping(address => bool)",
        "numberOfBytes": "32",
        "value": "t_bool"
      },
      "t_mapping(t_address,t_mapping(t_address,t_bool))": {
        "encoding": "mapping",
        "key": "t_address",
        "label": "mapping(address => mapping(address => bool))",
        "numberOfBytes": "32",
        "value": "t_mapping(t_address,t_bool)"
      },
      "t_mapping(t_address,t_uint256)": {
        "encoding": "mapping",
        "key": "t_address",
        "label": "mapping(address => uint256)",
        "numberOfBytes": "32",
        "value": "t_uint256"
      },
      "t_mapping(t_uint256,t_address)": {
        "encoding": "mapping",
        "key": "t_uint256",
        "label": "mapping(uint256 => address)",
        "numberOfBytes": "32",
        "value": "t_address"
      },
      "t_mapping(t_uint256,t_bool)": {
        "encoding": "mapping",
        "key": "t_uint256",
        "label": "mapping(uint256 => bool)",
        "numberOfBytes": "32",
        "value": "t_bool"
      },
      "t_string_storage": {
        "encoding": "bytes",
        "label": "string",
        "numberOfBytes": "32"
      },
      "t_uint256": {
        "encoding": "inplace",
        "label": "uint256",
        "numberOfBytes": "32"
      }
    }
  }
}