{
  "address": "0x9C2FFEbD43BF02FAb4ef4b9729b161d65962475a",
  "abi": [
    {
      "inputs": [],
      "stateMutability": "nonpayable",
      "type": "constructor"
    },
    {
      "inputs": [],
      "name": "getLatestPrice",
      "outputs": [
        {
          "internalType": "int256",
          "name": "",
          "type": "int256"
        }
      ],
      "stateMutability": "view",
      "type": "function"
    }
  ],
  "transactionHash": "0x80f4766287f2058a780cec8b003b954b552a60c5e6526eb1a86f0760aed4de44",
  "args": [],
  "numDeployments": 1,
  "solcInputHash": "0211bff8248ed2ade9c1480d48dca68e",
  "bytecode": "0x608060405234801561001057600080fd5b50600080546001600160a01b031916739326bfa02add2366b30bacb125260af641031331179055610177806100466000396000f3fe608060405234801561001057600080fd5b506004361061002b5760003560e01c80638e15f47314610030575b600080fd5b61003861004a565b60405190815260200160405180910390f35b6000805460408051633fabe5a360e21b8152905183926001600160a01b03169163feaf968c9160048083019260a0929190829003018186803b15801561008f57600080fd5b505afa1580156100a3573d6000803e3d6000fd5b505050506040513d601f19601f820116820180604052508101906100c791906100f1565b509195945050505050565b805169ffffffffffffffffffff811681146100ec57600080fd5b919050565b600080600080600060a0868803121561010957600080fd5b610112866100d2565b9450602086015193506040860151925060608601519150610135608087016100d2565b9050929550929590935056fea2646970667358221220bc673ddb91e607ebe071a68afdc84ffcc6141b8c51a4cc44b9ad0d8155afc58a64736f6c63430008090033",
  "devdoc": {
    "kind": "dev",
    "methods": {},
    "version": 1
  },
  "userdoc": {
    "kind": "user",
    "methods": {
      "constructor": {
        "notice": "Network: Kovan Aggregator: ETH/USD Address: 0x9326BFA02ADD2366b30bacB125260Af641031331"
      },
      "getLatestPrice()": {
        "notice": "Returns the latest price"
      }
    },
    "version": 1
  },
  "storageLayout": {
    "storage": [
      {
        "astId": 51,
        "contract": "contracts/Price.sol:Price",
        "label": "priceFeed",
        "offset": 0,
        "slot": "0",
        "type": "t_contract(AggregatorV3Interface)45"
      }
    ],
    "types": {
      "t_contract(AggregatorV3Interface)45": {
        "encoding": "inplace",
        "label": "contract AggregatorV3Interface",
        "numberOfBytes": "20"
      }
    }
  }
}